{
  "_format": "hh-sol-artifact-1",
  "contractName": "StakeOverflow",
  "sourceName": "contracts/StakeOverflow/StakeOverflow.sol",
  "abi": [
    {
      "inputs": [],
      "stateMutability": "nonpayable",
      "type": "constructor"
    },
    {
      "anonymous": false,
      "inputs": [
        {
          "indexed": true,
          "internalType": "uint256",
          "name": "questionID",
          "type": "uint256"
        },
        {
          "indexed": true,
          "internalType": "address",
          "name": "answerer",
          "type": "address"
        },
        {
          "indexed": false,
          "internalType": "uint256",
          "name": "answerID",
          "type": "uint256"
        },
        {
          "indexed": false,
          "internalType": "string",
          "name": "contentURI",
          "type": "string"
        }
      ],
      "name": "NewAnswerAdded",
      "type": "event"
    },
    {
      "anonymous": false,
      "inputs": [
        {
          "indexed": true,
          "internalType": "address",
          "name": "questioner",
          "type": "address"
        },
        {
          "indexed": false,
          "internalType": "uint256",
          "name": "questionID",
          "type": "uint256"
        },
        {
          "indexed": false,
          "internalType": "string",
          "name": "contentURI",
          "type": "string"
        },
        {
          "indexed": false,
          "internalType": "string",
          "name": "title",
          "type": "string"
        },
        {
          "indexed": false,
          "internalType": "string[]",
          "name": "tags",
          "type": "string[]"
        }
      ],
      "name": "NewQuestionAdded",
      "type": "event"
    },
    {
      "anonymous": false,
      "inputs": [
        {
          "indexed": true,
          "internalType": "address",
          "name": "previousOwner",
          "type": "address"
        },
        {
          "indexed": true,
          "internalType": "address",
          "name": "newOwner",
          "type": "address"
        }
      ],
      "name": "OwnershipTransferred",
      "type": "event"
    },
    {
      "anonymous": false,
      "inputs": [
        {
          "indexed": true,
          "internalType": "uint256",
          "name": "questionID",
          "type": "uint256"
        },
        {
          "indexed": false,
          "internalType": "uint256",
          "name": "reducedStake",
          "type": "uint256"
        }
      ],
      "name": "QuestionClosed",
      "type": "event"
    },
    {
      "anonymous": false,
      "inputs": [
        {
          "indexed": true,
          "internalType": "uint256",
          "name": "questionID",
          "type": "uint256"
        },
        {
          "indexed": true,
          "internalType": "uint256",
          "name": "answerID",
          "type": "uint256"
        },
        {
          "indexed": true,
          "internalType": "address",
          "name": "sender",
          "type": "address"
        },
        {
          "indexed": false,
          "internalType": "address",
          "name": "questioner",
          "type": "address"
        },
        {
          "indexed": false,
          "internalType": "address",
          "name": "answerer",
          "type": "address"
        },
        {
          "indexed": false,
          "internalType": "uint256",
          "name": "questionerReward",
          "type": "uint256"
        },
        {
          "indexed": false,
          "internalType": "uint256",
          "name": "answererReward",
          "type": "uint256"
        },
        {
          "indexed": false,
          "internalType": "uint256",
          "name": "reducedStake",
          "type": "uint256"
        }
      ],
      "name": "Rewarded",
      "type": "event"
    },
    {
      "anonymous": false,
      "inputs": [
        {
          "indexed": true,
          "internalType": "uint256",
          "name": "questionID",
          "type": "uint256"
        },
        {
          "indexed": true,
          "internalType": "address",
          "name": "staker",
          "type": "address"
        },
        {
          "indexed": false,
          "internalType": "uint256",
          "name": "amount",
          "type": "uint256"
        }
      ],
      "name": "StakedToQuestion",
      "type": "event"
    },
    {
      "inputs": [
        {
          "internalType": "uint256",
          "name": "",
          "type": "uint256"
        }
      ],
      "name": "_answers",
      "outputs": [
        {
          "internalType": "address",
          "name": "answerer",
          "type": "address"
        },
        {
          "internalType": "uint256",
          "name": "questionID",
          "type": "uint256"
        },
        {
          "internalType": "uint256",
          "name": "nonce",
          "type": "uint256"
        },
        {
          "internalType": "uint256",
          "name": "receivedReward",
          "type": "uint256"
        }
      ],
      "stateMutability": "view",
      "type": "function"
    },
    {
      "inputs": [
        {
          "internalType": "uint256",
          "name": "",
          "type": "uint256"
        },
        {
          "internalType": "address",
          "name": "",
          "type": "address"
        }
      ],
      "name": "_pooledAmount",
      "outputs": [
        {
          "internalType": "uint256",
          "name": "",
          "type": "uint256"
        }
      ],
      "stateMutability": "view",
      "type": "function"
    },
    {
      "inputs": [
        {
          "internalType": "uint256",
          "name": "",
          "type": "uint256"
        }
      ],
      "name": "_questions",
      "outputs": [
        {
          "internalType": "enum StakeOverflowStorage.QuestionStatus",
          "name": "status",
          "type": "uint8"
        },
        {
          "internalType": "address",
          "name": "questioner",
          "type": "address"
        },
        {
          "internalType": "uint256",
          "name": "numAnswers",
          "type": "uint256"
        },
        {
          "internalType": "uint256",
          "name": "receivedQuestionerReward",
          "type": "uint256"
        }
      ],
      "stateMutability": "view",
      "type": "function"
    },
    {
      "inputs": [
        {
          "internalType": "uint256",
          "name": "",
          "type": "uint256"
        },
        {
          "internalType": "address",
          "name": "",
          "type": "address"
        }
      ],
      "name": "_rewardedAmount",
      "outputs": [
        {
          "internalType": "uint256",
          "name": "",
          "type": "uint256"
        }
      ],
      "stateMutability": "view",
      "type": "function"
    },
    {
      "inputs": [
        {
          "internalType": "uint256",
          "name": "questionID",
          "type": "uint256"
        }
      ],
      "name": "closeQuestion",
      "outputs": [],
      "stateMutability": "nonpayable",
      "type": "function"
    },
    {
      "inputs": [
        {
          "internalType": "uint256",
          "name": "questionID",
          "type": "uint256"
        },
        {
          "internalType": "string",
          "name": "ipfsContentHash",
          "type": "string"
        }
      ],
      "name": "createAnswer",
      "outputs": [],
      "stateMutability": "nonpayable",
      "type": "function"
    },
    {
      "inputs": [
        {
          "internalType": "string",
          "name": "ipfsContentHash",
          "type": "string"
        },
        {
          "internalType": "string",
          "name": "title",
          "type": "string"
        },
        {
          "internalType": "string[]",
          "name": "tags",
          "type": "string[]"
        }
      ],
      "name": "createQuestion",
      "outputs": [],
      "stateMutability": "payable",
      "type": "function"
    },
    {
      "inputs": [
        {
          "internalType": "uint256",
          "name": "contentID",
          "type": "uint256"
        }
      ],
      "name": "getContentURI",
      "outputs": [
        {
          "internalType": "string",
          "name": "",
          "type": "string"
        }
      ],
      "stateMutability": "view",
      "type": "function"
    },
    {
      "inputs": [],
      "name": "owner",
      "outputs": [
        {
          "internalType": "address",
          "name": "",
          "type": "address"
        }
      ],
      "stateMutability": "view",
      "type": "function"
    },
    {
      "inputs": [],
      "name": "renounceOwnership",
      "outputs": [],
      "stateMutability": "nonpayable",
      "type": "function"
    },
    {
      "inputs": [
        {
          "internalType": "uint256",
          "name": "questionID",
          "type": "uint256"
        },
        {
          "internalType": "uint256",
          "name": "answerID",
          "type": "uint256"
        }
      ],
      "name": "rewardDirectly",
      "outputs": [],
      "stateMutability": "payable",
      "type": "function"
    },
    {
      "inputs": [
        {
          "internalType": "uint256",
          "name": "questionID",
          "type": "uint256"
        },
        {
          "internalType": "uint256",
          "name": "answerID",
          "type": "uint256"
        }
      ],
      "name": "rewardFromPool",
      "outputs": [],
      "stateMutability": "nonpayable",
      "type": "function"
    },
    {
      "inputs": [
        {
          "internalType": "uint256",
          "name": "questionID",
          "type": "uint256"
        },
        {
          "internalType": "address",
          "name": "addr",
          "type": "address"
        }
      ],
      "name": "rewardedAmount",
      "outputs": [
        {
          "internalType": "uint256",
          "name": "",
          "type": "uint256"
        }
      ],
      "stateMutability": "view",
      "type": "function"
    },
    {
      "inputs": [
        {
          "internalType": "uint256",
          "name": "questionID",
          "type": "uint256"
        }
      ],
      "name": "stakeToQuestion",
      "outputs": [],
      "stateMutability": "payable",
      "type": "function"
    },
    {
      "inputs": [
        {
          "internalType": "uint256",
          "name": "questionID",
          "type": "uint256"
        },
        {
          "internalType": "address",
          "name": "addr",
          "type": "address"
        }
      ],
      "name": "stakedAmount",
      "outputs": [
        {
          "internalType": "uint256",
          "name": "",
          "type": "uint256"
        }
      ],
      "stateMutability": "view",
      "type": "function"
    },
    {
      "inputs": [
        {
          "internalType": "address",
          "name": "newOwner",
          "type": "address"
        }
      ],
      "name": "transferOwnership",
      "outputs": [],
      "stateMutability": "nonpayable",
      "type": "function"
    },
    {
      "inputs": [],
      "name": "withdrawFee",
      "outputs": [],
      "stateMutability": "nonpayable",
      "type": "function"
    }
  ],
  "bytecode": "0x608060405260056007556000600855601e600955601e600a556046600b553480156200002a57600080fd5b506200004b6200003f620000ca60201b60201c565b620000d260201b60201c565b306040516200005a9062000198565b620000669190620001eb565b604051809103906000f08015801562000083573d6000803e3d6000fd5b50600160006101000a81548173ffffffffffffffffffffffffffffffffffffffff021916908373ffffffffffffffffffffffffffffffffffffffff16021790555062000208565b600033905090565b6000600660009054906101000a900473ffffffffffffffffffffffffffffffffffffffff16905081600660006101000a81548173ffffffffffffffffffffffffffffffffffffffff021916908373ffffffffffffffffffffffffffffffffffffffff1602179055508173ffffffffffffffffffffffffffffffffffffffff168173ffffffffffffffffffffffffffffffffffffffff167f8be0079c531659141344cd1fd0a4f28419497f9722a3daafe3b4186f6b6457e060405160405180910390a35050565b6134bf806200305283390190565b600073ffffffffffffffffffffffffffffffffffffffff82169050919050565b6000620001d382620001a6565b9050919050565b620001e581620001c6565b82525050565b6000602082019050620002026000830184620001da565b92915050565b612e3a80620002186000396000f3fe6080604052600436106100fe5760003560e01c80637cc5357011610095578063b85502a011610064578063b85502a014610343578063c09f32e814610380578063e941fa78146103a9578063f2fde38b146103c0578063f66b5c6f146103e9576100fe565b80637cc53570146102725780638da5cb5b146102af57806391eb9adf146102da5780639de7e6971461031a576100fe565b80634d776297116100d15780634d776297146101b85780634fec390c146101f5578063715018a61461021e578063749b93eb14610235576100fe565b806310cb5c0a1461010357806318993e0f1461011f578063192e86c81461015c5780632f246aab1461019c575b600080fd5b61011d60048036038101906101189190611ef9565b610405565b005b34801561012b57600080fd5b5061014660048036038101906101419190611f84565b6104e2565b6040516101539190611fd3565b60405180910390f35b34801561016857600080fd5b50610183600480360381019061017e9190611ef9565b6105c9565b6040516101939493929190611ffd565b60405180910390f35b6101b660048036038101906101b19190612042565b610619565b005b3480156101c457600080fd5b506101df60048036038101906101da9190611f84565b61079f565b6040516101ec9190611fd3565b60405180910390f35b34801561020157600080fd5b5061021c600480360381019061021791906121c8565b6107c4565b005b34801561022a57600080fd5b5061023361085e565b005b34801561024157600080fd5b5061025c60048036038101906102579190611f84565b6108e6565b6040516102699190611fd3565b60405180910390f35b34801561027e57600080fd5b5061029960048036038101906102949190611ef9565b61090b565b6040516102a691906122ac565b60405180910390f35b3480156102bb57600080fd5b506102c46109b5565b6040516102d191906122ce565b60405180910390f35b3480156102e657600080fd5b5061030160048036038101906102fc9190611ef9565b6109df565b6040516103119493929190612360565b60405180910390f35b34801561032657600080fd5b50610341600480360381019061033c9190612042565b610a3c565b005b34801561034f57600080fd5b5061036a60048036038101906103659190611f84565b610b7e565b6040516103779190611fd3565b60405180910390f35b34801561038c57600080fd5b506103a760048036038101906103a29190611ef9565b610c65565b005b3480156103b557600080fd5b506103be610da3565b005b3480156103cc57600080fd5b506103e760048036038101906103e291906123a5565b610e71565b005b61040360048036038101906103fe91906124b8565b610f68565b005b806001600281111561041a576104196122e9565b5b6002600083815260200190815260200160002060000160009054906101000a900460ff1660028111156104505761044f6122e9565b5b14610490576040517f08c379a0000000000000000000000000000000000000000000000000000000008152600401610487906125ab565b60405180910390fd5b600034116104d3576040517f08c379a00000000000000000000000000000000000000000000000000000000081526004016104ca90612617565b60405180910390fd5b6104de823334610fbb565b5050565b600082600060028111156104f9576104f86122e9565b5b6002600083815260200190815260200160002060000160009054906101000a900460ff16600281111561052f5761052e6122e9565b5b0361056f576040517f08c379a000000000000000000000000000000000000000000000000000000000815260040161056690612683565b60405180910390fd5b6005600085815260200190815260200160002060008473ffffffffffffffffffffffffffffffffffffffff1673ffffffffffffffffffffffffffffffffffffffff1681526020019081526020016000205491505092915050565b60036020528060005260406000206000915090508060000160009054906101000a900473ffffffffffffffffffffffffffffffffffffffff16908060010154908060020154908060030154905084565b816000600281111561062e5761062d6122e9565b5b6002600083815260200190815260200160002060000160009054906101000a900460ff166002811115610664576106636122e9565b5b036106a4576040517f08c379a000000000000000000000000000000000000000000000000000000000815260040161069b90612683565b60405180910390fd5b81600073ffffffffffffffffffffffffffffffffffffffff166003600083815260200190815260200160002060000160009054906101000a900473ffffffffffffffffffffffffffffffffffffffff1673ffffffffffffffffffffffffffffffffffffffff160361074a576040517f08c379a0000000000000000000000000000000000000000000000000000000008152600401610741906126ef565b60405180910390fd5b6000341161078d576040517f08c379a000000000000000000000000000000000000000000000000000000000815260040161078490612617565b60405180910390fd5b610799848433346110e2565b50505050565b6005602052816000526040600020602052806000526040600020600091509150505481565b81600160028111156107d9576107d86122e9565b5b6002600083815260200190815260200160002060000160009054906101000a900460ff16600281111561080f5761080e6122e9565b5b1461084f576040517f08c379a0000000000000000000000000000000000000000000000000000000008152600401610846906125ab565b60405180910390fd5b6108598383611386565b505050565b61086661161d565b73ffffffffffffffffffffffffffffffffffffffff166108846109b5565b73ffffffffffffffffffffffffffffffffffffffff16146108da576040517f08c379a00000000000000000000000000000000000000000000000000000000081526004016108d19061275b565b60405180910390fd5b6108e46000611625565b565b6004602052816000526040600020602052806000526040600020600091509150505481565b6060600160009054906101000a900473ffffffffffffffffffffffffffffffffffffffff1673ffffffffffffffffffffffffffffffffffffffff1663c87b56dd836040518263ffffffff1660e01b81526004016109689190611fd3565b600060405180830381865afa158015610985573d6000803e3d6000fd5b505050506040513d6000823e3d601f19601f820116820180604052508101906109ae91906127eb565b9050919050565b6000600660009054906101000a900473ffffffffffffffffffffffffffffffffffffffff16905090565b60026020528060005260406000206000915090508060000160009054906101000a900460ff16908060000160019054906101000a900473ffffffffffffffffffffffffffffffffffffffff16908060010154908060020154905084565b8160006002811115610a5157610a506122e9565b5b6002600083815260200190815260200160002060000160009054906101000a900460ff166002811115610a8757610a866122e9565b5b03610ac7576040517f08c379a0000000000000000000000000000000000000000000000000000000008152600401610abe90612683565b60405180910390fd5b81600073ffffffffffffffffffffffffffffffffffffffff166003600083815260200190815260200160002060000160009054906101000a900473ffffffffffffffffffffffffffffffffffffffff1673ffffffffffffffffffffffffffffffffffffffff1603610b6d576040517f08c379a0000000000000000000000000000000000000000000000000000000008152600401610b64906126ef565b60405180910390fd5b610b788484336116eb565b50505050565b60008260006002811115610b9557610b946122e9565b5b6002600083815260200190815260200160002060000160009054906101000a900460ff166002811115610bcb57610bca6122e9565b5b03610c0b576040517f08c379a0000000000000000000000000000000000000000000000000000000008152600401610c0290612683565b60405180910390fd5b6004600085815260200190815260200160002060008473ffffffffffffffffffffffffffffffffffffffff1673ffffffffffffffffffffffffffffffffffffffff1681526020019081526020016000205491505092915050565b803373ffffffffffffffffffffffffffffffffffffffff166002600083815260200190815260200160002060000160019054906101000a900473ffffffffffffffffffffffffffffffffffffffff1673ffffffffffffffffffffffffffffffffffffffff1603610d0a576040517f08c379a0000000000000000000000000000000000000000000000000000000008152600401610d0190612880565b60405180910390fd5b8160016002811115610d1f57610d1e6122e9565b5b6002600083815260200190815260200160002060000160009054906101000a900460ff166002811115610d5557610d546122e9565b5b14610d95576040517f08c379a0000000000000000000000000000000000000000000000000000000008152600401610d8c906125ab565b60405180910390fd5b610d9e83611a04565b505050565b610dab61161d565b73ffffffffffffffffffffffffffffffffffffffff16610dc96109b5565b73ffffffffffffffffffffffffffffffffffffffff1614610e1f576040517f08c379a0000000000000000000000000000000000000000000000000000000008152600401610e169061275b565b60405180910390fd5b600080819055503373ffffffffffffffffffffffffffffffffffffffff166108fc6000549081150290604051600060405180830381858888f19350505050158015610e6e573d6000803e3d6000fd5b50565b610e7961161d565b73ffffffffffffffffffffffffffffffffffffffff16610e976109b5565b73ffffffffffffffffffffffffffffffffffffffff1614610eed576040517f08c379a0000000000000000000000000000000000000000000000000000000008152600401610ee49061275b565b60405180910390fd5b600073ffffffffffffffffffffffffffffffffffffffff168173ffffffffffffffffffffffffffffffffffffffff1603610f5c576040517f08c379a0000000000000000000000000000000000000000000000000000000008152600401610f5390612912565b60405180910390fd5b610f6581611625565b50565b60003411610fab576040517f08c379a0000000000000000000000000000000000000000000000000000000008152600401610fa290612617565b60405180910390fd5b610fb6838383611c07565b505050565b6000600260008581526020019081526020016000209050600060646007546064610fe59190612961565b84610ff09190612995565b610ffa9190612a1e565b90506000818461100a9190612961565b90508060008082825461101d9190612a4f565b92505081905550816004600088815260200190815260200160002060008773ffffffffffffffffffffffffffffffffffffffff1673ffffffffffffffffffffffffffffffffffffffff16815260200190815260200160002060008282546110849190612a4f565b925050819055508473ffffffffffffffffffffffffffffffffffffffff16867fbc18e8476b2665775234cd6bb15bafc99eb27945917b12cac79f5b16619bae3b846040516110d29190611fd3565b60405180910390a3505050505050565b60006002600086815260200190815260200160002090506000600360008681526020019081526020016000206040518060800160405290816000820160009054906101000a900473ffffffffffffffffffffffffffffffffffffffff1673ffffffffffffffffffffffffffffffffffffffff1673ffffffffffffffffffffffffffffffffffffffff168152602001600182015481526020016002820154815260200160038201548152505090506000606460075460646111a29190612961565b856111ad9190612995565b6111b79190612a1e565b9050600081856111c79190612961565b905060006064600a54846111db9190612995565b6111e59190612a1e565b9050600081846111f59190612961565b9050826000808282546112089190612a4f565b92505081905550818660020160008282546112239190612a4f565b92505081905550808560600181815161123c9190612a4f565b915081815250508560000160019054906101000a900473ffffffffffffffffffffffffffffffffffffffff1673ffffffffffffffffffffffffffffffffffffffff166108fc839081150290604051600060405180830381858888f193505050501580156112ad573d6000803e3d6000fd5b50846000015173ffffffffffffffffffffffffffffffffffffffff166108fc829081150290604051600060405180830381858888f193505050501580156112f8573d6000803e3d6000fd5b508773ffffffffffffffffffffffffffffffffffffffff16898b7f710634881fdae4f9d96c645edeb484e42305b5c873bed441a2debe7d299b3f048960000160019054906101000a900473ffffffffffffffffffffffffffffffffffffffff16896000015187876000604051611372959493929190612aea565b60405180910390a450505050505050505050565b60003390506000600160009054906101000a900473ffffffffffffffffffffffffffffffffffffffff1673ffffffffffffffffffffffffffffffffffffffff166322e2c95783856040518363ffffffff1660e01b81526004016113ea929190612b3d565b6020604051808303816000875af1158015611409573d6000803e3d6000fd5b505050506040513d601f19601f8201168201806040525081019061142d9190612b82565b9050600060026000868152602001908152602001600020905060008160010154905060018260010160008282546114649190612a4f565b9250508190555060405180608001604052808573ffffffffffffffffffffffffffffffffffffffff16815260200187815260200182815260200160008152506003600085815260200190815260200160002060008201518160000160006101000a81548173ffffffffffffffffffffffffffffffffffffffff021916908373ffffffffffffffffffffffffffffffffffffffff1602179055506020820151816001015560408201518160020155606082015181600301559050506000600160009054906101000a900473ffffffffffffffffffffffffffffffffffffffff1673ffffffffffffffffffffffffffffffffffffffff1663c87b56dd856040518263ffffffff1660e01b815260040161157b9190611fd3565b600060405180830381865afa158015611598573d6000803e3d6000fd5b505050506040513d6000823e3d601f19601f820116820180604052508101906115c191906127eb565b90508473ffffffffffffffffffffffffffffffffffffffff16877f9efc53a15ca9f89b8eb1878997afec98727d6613d6221d7d0bcfad28f47251cd868460405161160c929190612baf565b60405180910390a350505050505050565b600033905090565b6000600660009054906101000a900473ffffffffffffffffffffffffffffffffffffffff16905081600660006101000a81548173ffffffffffffffffffffffffffffffffffffffff021916908373ffffffffffffffffffffffffffffffffffffffff1602179055508173ffffffffffffffffffffffffffffffffffffffff168173ffffffffffffffffffffffffffffffffffffffff167f8be0079c531659141344cd1fd0a4f28419497f9722a3daafe3b4186f6b6457e060405160405180910390a35050565b6000600260008581526020019081526020016000209050600060036000858152602001908152602001600020905060006004600087815260200190815260200160002060008573ffffffffffffffffffffffffffffffffffffffff1673ffffffffffffffffffffffffffffffffffffffff16815260200190815260200160002054905060006005600088815260200190815260200160002060008673ffffffffffffffffffffffffffffffffffffffff1673ffffffffffffffffffffffffffffffffffffffff168152602001908152602001600020549050600081836117d19190612961565b905060008111611816576040517f08c379a000000000000000000000000000000000000000000000000000000000815260040161180d90612c2b565b60405180910390fd5b6000600460008a815260200190815260200160002060008873ffffffffffffffffffffffffffffffffffffffff1673ffffffffffffffffffffffffffffffffffffffff1681526020019081526020016000208190555080600560008a815260200190815260200160002060008873ffffffffffffffffffffffffffffffffffffffff1673ffffffffffffffffffffffffffffffffffffffff16815260200190815260200160002060008282546118cc9190612a4f565b92505081905550808460030160008282546118e79190612a4f565b925050819055508360000160009054906101000a900473ffffffffffffffffffffffffffffffffffffffff1673ffffffffffffffffffffffffffffffffffffffff166108fc829081150290604051600060405180830381858888f19350505050158015611958573d6000803e3d6000fd5b508573ffffffffffffffffffffffffffffffffffffffff1687897f710634881fdae4f9d96c645edeb484e42305b5c873bed441a2debe7d299b3f048860000160019054906101000a900473ffffffffffffffffffffffffffffffffffffffff168860000160009054906101000a900473ffffffffffffffffffffffffffffffffffffffff16600087886040516119f2959493929190612c4b565b60405180910390a45050505050505050565b600060026000838152602001908152602001600020905060028160000160006101000a81548160ff02191690836002811115611a4357611a426122e9565b5b021790555060008160000160019054906101000a900473ffffffffffffffffffffffffffffffffffffffff16905060006004600085815260200190815260200160002060008373ffffffffffffffffffffffffffffffffffffffff1673ffffffffffffffffffffffffffffffffffffffff1681526020019081526020016000205490506000811115611b73576000806000856001015403611ae657829150611b11565b606460095484611af69190612995565b611b009190612a1e565b90508083611b0e9190612961565b91505b80600080828254611b229190612a4f565b925050819055508373ffffffffffffffffffffffffffffffffffffffff166108fc849081150290604051600060405180830381858888f19350505050158015611b6f573d6000803e3d6000fd5b5050505b60006004600086815260200190815260200160002060008473ffffffffffffffffffffffffffffffffffffffff1673ffffffffffffffffffffffffffffffffffffffff16815260200190815260200160002081905550837f99fe2c8abd13b610e7f7d4a51a49e1391ba19454b72305176b884d66010e475a82604051611bf99190611fd3565b60405180910390a250505050565b600033905060003490506000600160009054906101000a900473ffffffffffffffffffffffffffffffffffffffff1673ffffffffffffffffffffffffffffffffffffffff166322e2c95784886040518363ffffffff1660e01b8152600401611c70929190612b3d565b6020604051808303816000875af1158015611c8f573d6000803e3d6000fd5b505050506040513d601f19601f82011682018060405250810190611cb39190612b82565b9050604051806080016040528060016002811115611cd457611cd36122e9565b5b81526020018473ffffffffffffffffffffffffffffffffffffffff1681526020016000815260200160008152506002600083815260200190815260200160002060008201518160000160006101000a81548160ff02191690836002811115611d3f57611d3e6122e9565b5b021790555060208201518160000160016101000a81548173ffffffffffffffffffffffffffffffffffffffff021916908373ffffffffffffffffffffffffffffffffffffffff1602179055506040820151816001015560608201518160020155905050611dad818484610fbb565b6000600160009054906101000a900473ffffffffffffffffffffffffffffffffffffffff1673ffffffffffffffffffffffffffffffffffffffff1663c87b56dd836040518263ffffffff1660e01b8152600401611e0a9190611fd3565b600060405180830381865afa158015611e27573d6000803e3d6000fd5b505050506040513d6000823e3d601f19601f82011682018060405250810190611e5091906127eb565b90508373ffffffffffffffffffffffffffffffffffffffff167fbec2a90a809761d847ca9076d244850b269f48c29fc8c3980fba2e5c87f1bc0683838989604051611e9e9493929190612daa565b60405180910390a250505050505050565b6000604051905090565b600080fd5b600080fd5b6000819050919050565b611ed681611ec3565b8114611ee157600080fd5b50565b600081359050611ef381611ecd565b92915050565b600060208284031215611f0f57611f0e611eb9565b5b6000611f1d84828501611ee4565b91505092915050565b600073ffffffffffffffffffffffffffffffffffffffff82169050919050565b6000611f5182611f26565b9050919050565b611f6181611f46565b8114611f6c57600080fd5b50565b600081359050611f7e81611f58565b92915050565b60008060408385031215611f9b57611f9a611eb9565b5b6000611fa985828601611ee4565b9250506020611fba85828601611f6f565b9150509250929050565b611fcd81611ec3565b82525050565b6000602082019050611fe86000830184611fc4565b92915050565b611ff781611f46565b82525050565b60006080820190506120126000830187611fee565b61201f6020830186611fc4565b61202c6040830185611fc4565b6120396060830184611fc4565b95945050505050565b6000806040838503121561205957612058611eb9565b5b600061206785828601611ee4565b925050602061207885828601611ee4565b9150509250929050565b600080fd5b600080fd5b6000601f19601f8301169050919050565b7f4e487b7100000000000000000000000000000000000000000000000000000000600052604160045260246000fd5b6120d58261208c565b810181811067ffffffffffffffff821117156120f4576120f361209d565b5b80604052505050565b6000612107611eaf565b905061211382826120cc565b919050565b600067ffffffffffffffff8211156121335761213261209d565b5b61213c8261208c565b9050602081019050919050565b82818337600083830152505050565b600061216b61216684612118565b6120fd565b90508281526020810184848401111561218757612186612087565b5b612192848285612149565b509392505050565b600082601f8301126121af576121ae612082565b5b81356121bf848260208601612158565b91505092915050565b600080604083850312156121df576121de611eb9565b5b60006121ed85828601611ee4565b925050602083013567ffffffffffffffff81111561220e5761220d611ebe565b5b61221a8582860161219a565b9150509250929050565b600081519050919050565b600082825260208201905092915050565b60005b8381101561225e578082015181840152602081019050612243565b8381111561226d576000848401525b50505050565b600061227e82612224565b612288818561222f565b9350612298818560208601612240565b6122a18161208c565b840191505092915050565b600060208201905081810360008301526122c68184612273565b905092915050565b60006020820190506122e36000830184611fee565b92915050565b7f4e487b7100000000000000000000000000000000000000000000000000000000600052602160045260246000fd5b60038110612329576123286122e9565b5b50565b600081905061233a82612318565b919050565b600061234a8261232c565b9050919050565b61235a8161233f565b82525050565b60006080820190506123756000830187612351565b6123826020830186611fee565b61238f6040830185611fc4565b61239c6060830184611fc4565b95945050505050565b6000602082840312156123bb576123ba611eb9565b5b60006123c984828501611f6f565b91505092915050565b600067ffffffffffffffff8211156123ed576123ec61209d565b5b602082029050602081019050919050565b600080fd5b6000612416612411846123d2565b6120fd565b90508083825260208201905060208402830185811115612439576124386123fe565b5b835b8181101561248057803567ffffffffffffffff81111561245e5761245d612082565b5b80860161246b898261219a565b8552602085019450505060208101905061243b565b5050509392505050565b600082601f83011261249f5761249e612082565b5b81356124af848260208601612403565b91505092915050565b6000806000606084860312156124d1576124d0611eb9565b5b600084013567ffffffffffffffff8111156124ef576124ee611ebe565b5b6124fb8682870161219a565b935050602084013567ffffffffffffffff81111561251c5761251b611ebe565b5b6125288682870161219a565b925050604084013567ffffffffffffffff81111561254957612548611ebe565b5b6125558682870161248a565b9150509250925092565b7f5175657374696f6e206973206e6f74206f70656e000000000000000000000000600082015250565b600061259560148361222f565b91506125a08261255f565b602082019050919050565b600060208201905081810360008301526125c481612588565b9050919050565b7f6e6565642076616c756500000000000000000000000000000000000000000000600082015250565b6000612601600a8361222f565b915061260c826125cb565b602082019050919050565b60006020820190508181036000830152612630816125f4565b9050919050565b7f5175657374696f6e20646f6573206e6f74206578697374000000000000000000600082015250565b600061266d60178361222f565b915061267882612637565b602082019050919050565b6000602082019050818103600083015261269c81612660565b9050919050565b7f416e7377657220646f6573206e6f742065786973740000000000000000000000600082015250565b60006126d960158361222f565b91506126e4826126a3565b602082019050919050565b60006020820190508181036000830152612708816126cc565b9050919050565b7f4f776e61626c653a2063616c6c6572206973206e6f7420746865206f776e6572600082015250565b600061274560208361222f565b91506127508261270f565b602082019050919050565b6000602082019050818103600083015261277481612738565b9050919050565b600061278e61278984612118565b6120fd565b9050828152602081018484840111156127aa576127a9612087565b5b6127b5848285612240565b509392505050565b600082601f8301126127d2576127d1612082565b5b81516127e284826020860161277b565b91505092915050565b60006020828403121561280157612800611eb9565b5b600082015167ffffffffffffffff81111561281f5761281e611ebe565b5b61282b848285016127bd565b91505092915050565b7f4f6e6c79207175657374696f6e65722063616e2063616c6c0000000000000000600082015250565b600061286a60188361222f565b915061287582612834565b602082019050919050565b600060208201905081810360008301526128998161285d565b9050919050565b7f4f776e61626c653a206e6577206f776e657220697320746865207a65726f206160008201527f6464726573730000000000000000000000000000000000000000000000000000602082015250565b60006128fc60268361222f565b9150612907826128a0565b604082019050919050565b6000602082019050818103600083015261292b816128ef565b9050919050565b7f4e487b7100000000000000000000000000000000000000000000000000000000600052601160045260246000fd5b600061296c82611ec3565b915061297783611ec3565b92508282101561298a57612989612932565b5b828203905092915050565b60006129a082611ec3565b91506129ab83611ec3565b9250817fffffffffffffffffffffffffffffffffffffffffffffffffffffffffffffffff04831182151516156129e4576129e3612932565b5b828202905092915050565b7f4e487b7100000000000000000000000000000000000000000000000000000000600052601260045260246000fd5b6000612a2982611ec3565b9150612a3483611ec3565b925082612a4457612a436129ef565b5b828204905092915050565b6000612a5a82611ec3565b9150612a6583611ec3565b9250827fffffffffffffffffffffffffffffffffffffffffffffffffffffffffffffffff03821115612a9a57612a99612932565b5b828201905092915050565b6000819050919050565b6000819050919050565b6000612ad4612acf612aca84612aa5565b612aaf565b611ec3565b9050919050565b612ae481612ab9565b82525050565b600060a082019050612aff6000830188611fee565b612b0c6020830187611fee565b612b196040830186611fc4565b612b266060830185611fc4565b612b336080830184612adb565b9695505050505050565b6000604082019050612b526000830185611fee565b8181036020830152612b648184612273565b90509392505050565b600081519050612b7c81611ecd565b92915050565b600060208284031215612b9857612b97611eb9565b5b6000612ba684828501612b6d565b91505092915050565b6000604082019050612bc46000830185611fc4565b8181036020830152612bd68184612273565b90509392505050565b7f4e6f20617661696c61626c6520616d6f756e7400000000000000000000000000600082015250565b6000612c1560138361222f565b9150612c2082612bdf565b602082019050919050565b60006020820190508181036000830152612c4481612c08565b9050919050565b600060a082019050612c606000830188611fee565b612c6d6020830187611fee565b612c7a6040830186612adb565b612c876060830185611fc4565b612c946080830184611fc4565b9695505050505050565b600081519050919050565b600082825260208201905092915050565b6000819050602082019050919050565b600082825260208201905092915050565b6000612ce682612224565b612cf08185612cca565b9350612d00818560208601612240565b612d098161208c565b840191505092915050565b6000612d208383612cdb565b905092915050565b6000602082019050919050565b6000612d4082612c9e565b612d4a8185612ca9565b935083602082028501612d5c85612cba565b8060005b85811015612d985784840389528151612d798582612d14565b9450612d8483612d28565b925060208a01995050600181019050612d60565b50829750879550505050505092915050565b6000608082019050612dbf6000830187611fc4565b8181036020830152612dd18186612273565b90508181036040830152612de58185612273565b90508181036060830152612df98184612d35565b90509594505050505056fea264697066735822122083f118714a1db299ea68d00152d95fc9d72da97f5e5cf65ea00ca566a6642bd864736f6c634300080d003360806040523480156200001157600080fd5b50604051620034bf380380620034bf8339818101604052810190620000379190620002f7565b6040518060400160405280601481526020017f5374616b654f766572666c6f77436f6e74656e740000000000000000000000008152506040518060400160405280600381526020017f534f4300000000000000000000000000000000000000000000000000000000008152508160009080519060200190620000bb929190620001dd565b508060019080519060200190620000d4929190620001dd565b505050620000f7620000eb6200010f60201b60201c565b6200011760201b60201c565b62000108816200011760201b60201c565b506200038d565b600033905090565b6000600760009054906101000a900473ffffffffffffffffffffffffffffffffffffffff16905081600760006101000a81548173ffffffffffffffffffffffffffffffffffffffff021916908373ffffffffffffffffffffffffffffffffffffffff1602179055508173ffffffffffffffffffffffffffffffffffffffff168173ffffffffffffffffffffffffffffffffffffffff167f8be0079c531659141344cd1fd0a4f28419497f9722a3daafe3b4186f6b6457e060405160405180910390a35050565b828054620001eb9062000358565b90600052602060002090601f0160209004810192826200020f57600085556200025b565b82601f106200022a57805160ff19168380011785556200025b565b828001600101855582156200025b579182015b828111156200025a5782518255916020019190600101906200023d565b5b5090506200026a91906200026e565b5090565b5b80821115620002895760008160009055506001016200026f565b5090565b600080fd5b600073ffffffffffffffffffffffffffffffffffffffff82169050919050565b6000620002bf8262000292565b9050919050565b620002d181620002b2565b8114620002dd57600080fd5b50565b600081519050620002f181620002c6565b92915050565b60006020828403121562000310576200030f6200028d565b5b60006200032084828501620002e0565b91505092915050565b7f4e487b7100000000000000000000000000000000000000000000000000000000600052602260045260246000fd5b600060028204905060018216806200037157607f821691505b60208210810362000387576200038662000329565b5b50919050565b613122806200039d6000396000f3fe608060405234801561001057600080fd5b506004361061010b5760003560e01c806370a08231116100a2578063a22cb46511610071578063a22cb465146102b8578063b88d4fde146102d4578063c87b56dd146102f0578063e985e9c514610320578063f2fde38b146103505761010b565b806370a0823114610242578063715018a6146102725780638da5cb5b1461027c57806395d89b411461029a5761010b565b806322e2c957116100de57806322e2c957146101aa57806323b872dd146101da57806342842e0e146101f65780636352211e146102125761010b565b806301ffc9a71461011057806306fdde0314610140578063081812fc1461015e578063095ea7b31461018e575b600080fd5b61012a60048036038101906101259190611d1a565b61036c565b6040516101379190611d62565b60405180910390f35b61014861044e565b6040516101559190611e16565b60405180910390f35b61017860048036038101906101739190611e6e565b6104e0565b6040516101859190611edc565b60405180910390f35b6101a860048036038101906101a39190611f23565b610565565b005b6101c460048036038101906101bf9190612098565b61067c565b6040516101d19190612103565b60405180910390f35b6101f460048036038101906101ef919061211e565b61070c565b005b610210600480360381019061020b919061211e565b61076c565b005b61022c60048036038101906102279190611e6e565b61078c565b6040516102399190611edc565b60405180910390f35b61025c60048036038101906102579190612171565b61083d565b6040516102699190612103565b60405180910390f35b61027a6108f4565b005b61028461097c565b6040516102919190611edc565b60405180910390f35b6102a26109a6565b6040516102af9190611e16565b60405180910390f35b6102d260048036038101906102cd91906121ca565b610a38565b005b6102ee60048036038101906102e991906122ab565b610a4e565b005b61030a60048036038101906103059190611e6e565b610ab0565b6040516103179190611e16565b60405180910390f35b61033a6004803603810190610335919061232e565b610c01565b6040516103479190611d62565b60405180910390f35b61036a60048036038101906103659190612171565b610c95565b005b60007f80ac58cd000000000000000000000000000000000000000000000000000000007bffffffffffffffffffffffffffffffffffffffffffffffffffffffff1916827bffffffffffffffffffffffffffffffffffffffffffffffffffffffff1916148061043757507f5b5e139f000000000000000000000000000000000000000000000000000000007bffffffffffffffffffffffffffffffffffffffffffffffffffffffff1916827bffffffffffffffffffffffffffffffffffffffffffffffffffffffff1916145b80610447575061044682610d8c565b5b9050919050565b60606000805461045d9061239d565b80601f01602080910402602001604051908101604052809291908181526020018280546104899061239d565b80156104d65780601f106104ab576101008083540402835291602001916104d6565b820191906000526020600020905b8154815290600101906020018083116104b957829003601f168201915b5050505050905090565b60006104eb82610df6565b61052a576040517f08c379a000000000000000000000000000000000000000000000000000000000815260040161052190612440565b60405180910390fd5b6004600083815260200190815260200160002060009054906101000a900473ffffffffffffffffffffffffffffffffffffffff169050919050565b60006105708261078c565b90508073ffffffffffffffffffffffffffffffffffffffff168373ffffffffffffffffffffffffffffffffffffffff16036105e0576040517f08c379a00000000000000000000000000000000000000000000000000000000081526004016105d7906124d2565b60405180910390fd5b8073ffffffffffffffffffffffffffffffffffffffff166105ff610e62565b73ffffffffffffffffffffffffffffffffffffffff16148061062e575061062d81610628610e62565b610c01565b5b61066d576040517f08c379a000000000000000000000000000000000000000000000000000000000815260040161066490612564565b60405180910390fd5b6106778383610e6a565b505050565b6000610686610e62565b73ffffffffffffffffffffffffffffffffffffffff166106a461097c565b73ffffffffffffffffffffffffffffffffffffffff16146106fa576040517f08c379a00000000000000000000000000000000000000000000000000000000081526004016106f1906125d0565b60405180910390fd5b6107048383610f23565b905092915050565b61071d610717610e62565b82610f7a565b61075c576040517f08c379a000000000000000000000000000000000000000000000000000000000815260040161075390612662565b60405180910390fd5b610767838383611058565b505050565b61078783838360405180602001604052806000815250610a4e565b505050565b6000806002600084815260200190815260200160002060009054906101000a900473ffffffffffffffffffffffffffffffffffffffff169050600073ffffffffffffffffffffffffffffffffffffffff168173ffffffffffffffffffffffffffffffffffffffff1603610834576040517f08c379a000000000000000000000000000000000000000000000000000000000815260040161082b906126f4565b60405180910390fd5b80915050919050565b60008073ffffffffffffffffffffffffffffffffffffffff168273ffffffffffffffffffffffffffffffffffffffff16036108ad576040517f08c379a00000000000000000000000000000000000000000000000000000000081526004016108a490612786565b60405180910390fd5b600360008373ffffffffffffffffffffffffffffffffffffffff1673ffffffffffffffffffffffffffffffffffffffff168152602001908152602001600020549050919050565b6108fc610e62565b73ffffffffffffffffffffffffffffffffffffffff1661091a61097c565b73ffffffffffffffffffffffffffffffffffffffff1614610970576040517f08c379a0000000000000000000000000000000000000000000000000000000008152600401610967906125d0565b60405180910390fd5b61097a60006112be565b565b6000600760009054906101000a900473ffffffffffffffffffffffffffffffffffffffff16905090565b6060600180546109b59061239d565b80601f01602080910402602001604051908101604052809291908181526020018280546109e19061239d565b8015610a2e5780601f10610a0357610100808354040283529160200191610a2e565b820191906000526020600020905b815481529060010190602001808311610a1157829003601f168201915b5050505050905090565b610a4a610a43610e62565b8383611384565b5050565b610a5f610a59610e62565b83610f7a565b610a9e576040517f08c379a0000000000000000000000000000000000000000000000000000000008152600401610a9590612662565b60405180910390fd5b610aaa848484846114f0565b50505050565b6060610abb82610df6565b610afa576040517f08c379a0000000000000000000000000000000000000000000000000000000008152600401610af190612818565b60405180910390fd5b6000600660008481526020019081526020016000208054610b1a9061239d565b80601f0160208091040260200160405190810160405280929190818152602001828054610b469061239d565b8015610b935780601f10610b6857610100808354040283529160200191610b93565b820191906000526020600020905b815481529060010190602001808311610b7657829003601f168201915b505050505090506000610ba461154c565b90506000815103610bb9578192505050610bfc565b600082511115610bee578082604051602001610bd6929190612874565b60405160208183030381529060405292505050610bfc565b610bf784611563565b925050505b919050565b6000600560008473ffffffffffffffffffffffffffffffffffffffff1673ffffffffffffffffffffffffffffffffffffffff16815260200190815260200160002060008373ffffffffffffffffffffffffffffffffffffffff1673ffffffffffffffffffffffffffffffffffffffff16815260200190815260200160002060009054906101000a900460ff16905092915050565b610c9d610e62565b73ffffffffffffffffffffffffffffffffffffffff16610cbb61097c565b73ffffffffffffffffffffffffffffffffffffffff1614610d11576040517f08c379a0000000000000000000000000000000000000000000000000000000008152600401610d08906125d0565b60405180910390fd5b600073ffffffffffffffffffffffffffffffffffffffff168173ffffffffffffffffffffffffffffffffffffffff1603610d80576040517f08c379a0000000000000000000000000000000000000000000000000000000008152600401610d779061290a565b60405180910390fd5b610d89816112be565b50565b60007f01ffc9a7000000000000000000000000000000000000000000000000000000007bffffffffffffffffffffffffffffffffffffffffffffffffffffffff1916827bffffffffffffffffffffffffffffffffffffffffffffffffffffffff1916149050919050565b60008073ffffffffffffffffffffffffffffffffffffffff166002600084815260200190815260200160002060009054906101000a900473ffffffffffffffffffffffffffffffffffffffff1673ffffffffffffffffffffffffffffffffffffffff1614159050919050565b600033905090565b816004600083815260200190815260200160002060006101000a81548173ffffffffffffffffffffffffffffffffffffffff021916908373ffffffffffffffffffffffffffffffffffffffff160217905550808273ffffffffffffffffffffffffffffffffffffffff16610edd8361078c565b73ffffffffffffffffffffffffffffffffffffffff167f8c5be1e5ebec7d5bd14f71427d1e84f3dd0314c0f7b2291e5b200ac8c7c3b92560405160405180910390a45050565b6000610f2f600861160a565b6000610f3b6008611620565b9050610f47848261162e565b610f708184604051602001610f5c9190612976565b604051602081830303815290604052611807565b8091505092915050565b6000610f8582610df6565b610fc4576040517f08c379a0000000000000000000000000000000000000000000000000000000008152600401610fbb90612a0a565b60405180910390fd5b6000610fcf8361078c565b90508073ffffffffffffffffffffffffffffffffffffffff168473ffffffffffffffffffffffffffffffffffffffff16148061103e57508373ffffffffffffffffffffffffffffffffffffffff16611026846104e0565b73ffffffffffffffffffffffffffffffffffffffff16145b8061104f575061104e8185610c01565b5b91505092915050565b8273ffffffffffffffffffffffffffffffffffffffff166110788261078c565b73ffffffffffffffffffffffffffffffffffffffff16146110ce576040517f08c379a00000000000000000000000000000000000000000000000000000000081526004016110c590612a9c565b60405180910390fd5b600073ffffffffffffffffffffffffffffffffffffffff168273ffffffffffffffffffffffffffffffffffffffff160361113d576040517f08c379a000000000000000000000000000000000000000000000000000000000815260040161113490612b2e565b60405180910390fd5b61114883838361187b565b611153600082610e6a565b6001600360008573ffffffffffffffffffffffffffffffffffffffff1673ffffffffffffffffffffffffffffffffffffffff16815260200190815260200160002060008282546111a39190612b7d565b925050819055506001600360008473ffffffffffffffffffffffffffffffffffffffff1673ffffffffffffffffffffffffffffffffffffffff16815260200190815260200160002060008282546111fa9190612bb1565b92505081905550816002600083815260200190815260200160002060006101000a81548173ffffffffffffffffffffffffffffffffffffffff021916908373ffffffffffffffffffffffffffffffffffffffff160217905550808273ffffffffffffffffffffffffffffffffffffffff168473ffffffffffffffffffffffffffffffffffffffff167fddf252ad1be2c89b69c2b068fc378daa952ba7f163c4a11628f55a4df523b3ef60405160405180910390a46112b98383836118fc565b505050565b6000600760009054906101000a900473ffffffffffffffffffffffffffffffffffffffff16905081600760006101000a81548173ffffffffffffffffffffffffffffffffffffffff021916908373ffffffffffffffffffffffffffffffffffffffff1602179055508173ffffffffffffffffffffffffffffffffffffffff168173ffffffffffffffffffffffffffffffffffffffff167f8be0079c531659141344cd1fd0a4f28419497f9722a3daafe3b4186f6b6457e060405160405180910390a35050565b8173ffffffffffffffffffffffffffffffffffffffff168373ffffffffffffffffffffffffffffffffffffffff16036113f2576040517f08c379a00000000000000000000000000000000000000000000000000000000081526004016113e990612c53565b60405180910390fd5b80600560008573ffffffffffffffffffffffffffffffffffffffff1673ffffffffffffffffffffffffffffffffffffffff16815260200190815260200160002060008473ffffffffffffffffffffffffffffffffffffffff1673ffffffffffffffffffffffffffffffffffffffff16815260200190815260200160002060006101000a81548160ff0219169083151502179055508173ffffffffffffffffffffffffffffffffffffffff168373ffffffffffffffffffffffffffffffffffffffff167f17307eab39ab6107e8899845ad3d59bd9653f200f220920489ca2b5937696c31836040516114e39190611d62565b60405180910390a3505050565b6114fb848484611058565b61150784848484611901565b611546576040517f08c379a000000000000000000000000000000000000000000000000000000000815260040161153d90612ce5565b60405180910390fd5b50505050565b606060405180602001604052806000815250905090565b606061156e82610df6565b6115ad576040517f08c379a00000000000000000000000000000000000000000000000000000000081526004016115a490612d77565b60405180910390fd5b60006115b761154c565b905060008151116115d75760405180602001604052806000815250611602565b806115e184611a88565b6040516020016115f2929190612874565b6040516020818303038152906040525b915050919050565b6001816000016000828254019250508190555050565b600081600001549050919050565b600073ffffffffffffffffffffffffffffffffffffffff168273ffffffffffffffffffffffffffffffffffffffff160361169d576040517f08c379a000000000000000000000000000000000000000000000000000000000815260040161169490612de3565b60405180910390fd5b6116a681610df6565b156116e6576040517f08c379a00000000000000000000000000000000000000000000000000000000081526004016116dd90612e4f565b60405180910390fd5b6116f26000838361187b565b6001600360008473ffffffffffffffffffffffffffffffffffffffff1673ffffffffffffffffffffffffffffffffffffffff16815260200190815260200160002060008282546117429190612bb1565b92505081905550816002600083815260200190815260200160002060006101000a81548173ffffffffffffffffffffffffffffffffffffffff021916908373ffffffffffffffffffffffffffffffffffffffff160217905550808273ffffffffffffffffffffffffffffffffffffffff16600073ffffffffffffffffffffffffffffffffffffffff167fddf252ad1be2c89b69c2b068fc378daa952ba7f163c4a11628f55a4df523b3ef60405160405180910390a4611803600083836118fc565b5050565b61181082610df6565b61184f576040517f08c379a000000000000000000000000000000000000000000000000000000000815260040161184690612ee1565b60405180910390fd5b80600660008481526020019081526020016000209080519060200190611876929190611c0b565b505050565b611883610e62565b73ffffffffffffffffffffffffffffffffffffffff166118a161097c565b73ffffffffffffffffffffffffffffffffffffffff16146118f7576040517f08c379a00000000000000000000000000000000000000000000000000000000081526004016118ee906125d0565b60405180910390fd5b505050565b505050565b60006119228473ffffffffffffffffffffffffffffffffffffffff16611be8565b15611a7b578373ffffffffffffffffffffffffffffffffffffffff1663150b7a0261194b610e62565b8786866040518563ffffffff1660e01b815260040161196d9493929190612f56565b6020604051808303816000875af19250505080156119a957506040513d601f19601f820116820180604052508101906119a69190612fb7565b60015b611a2b573d80600081146119d9576040519150601f19603f3d011682016040523d82523d6000602084013e6119de565b606091505b506000815103611a23576040517f08c379a0000000000000000000000000000000000000000000000000000000008152600401611a1a90612ce5565b60405180910390fd5b805181602001fd5b63150b7a0260e01b7bffffffffffffffffffffffffffffffffffffffffffffffffffffffff1916817bffffffffffffffffffffffffffffffffffffffffffffffffffffffff191614915050611a80565b600190505b949350505050565b606060008203611acf576040518060400160405280600181526020017f30000000000000000000000000000000000000000000000000000000000000008152509050611be3565b600082905060005b60008214611b01578080611aea90612fe4565b915050600a82611afa919061305b565b9150611ad7565b60008167ffffffffffffffff811115611b1d57611b1c611f6d565b5b6040519080825280601f01601f191660200182016040528015611b4f5781602001600182028036833780820191505090505b5090505b60008514611bdc57600182611b689190612b7d565b9150600a85611b77919061308c565b6030611b839190612bb1565b60f81b818381518110611b9957611b986130bd565b5b60200101907effffffffffffffffffffffffffffffffffffffffffffffffffffffffffffff1916908160001a905350600a85611bd5919061305b565b9450611b53565b8093505050505b919050565b6000808273ffffffffffffffffffffffffffffffffffffffff163b119050919050565b828054611c179061239d565b90600052602060002090601f016020900481019282611c395760008555611c80565b82601f10611c5257805160ff1916838001178555611c80565b82800160010185558215611c80579182015b82811115611c7f578251825591602001919060010190611c64565b5b509050611c8d9190611c91565b5090565b5b80821115611caa576000816000905550600101611c92565b5090565b6000604051905090565b600080fd5b600080fd5b60007fffffffff0000000000000000000000000000000000000000000000000000000082169050919050565b611cf781611cc2565b8114611d0257600080fd5b50565b600081359050611d1481611cee565b92915050565b600060208284031215611d3057611d2f611cb8565b5b6000611d3e84828501611d05565b91505092915050565b60008115159050919050565b611d5c81611d47565b82525050565b6000602082019050611d776000830184611d53565b92915050565b600081519050919050565b600082825260208201905092915050565b60005b83811015611db7578082015181840152602081019050611d9c565b83811115611dc6576000848401525b50505050565b6000601f19601f8301169050919050565b6000611de882611d7d565b611df28185611d88565b9350611e02818560208601611d99565b611e0b81611dcc565b840191505092915050565b60006020820190508181036000830152611e308184611ddd565b905092915050565b6000819050919050565b611e4b81611e38565b8114611e5657600080fd5b50565b600081359050611e6881611e42565b92915050565b600060208284031215611e8457611e83611cb8565b5b6000611e9284828501611e59565b91505092915050565b600073ffffffffffffffffffffffffffffffffffffffff82169050919050565b6000611ec682611e9b565b9050919050565b611ed681611ebb565b82525050565b6000602082019050611ef16000830184611ecd565b92915050565b611f0081611ebb565b8114611f0b57600080fd5b50565b600081359050611f1d81611ef7565b92915050565b60008060408385031215611f3a57611f39611cb8565b5b6000611f4885828601611f0e565b9250506020611f5985828601611e59565b9150509250929050565b600080fd5b600080fd5b7f4e487b7100000000000000000000000000000000000000000000000000000000600052604160045260246000fd5b611fa582611dcc565b810181811067ffffffffffffffff82111715611fc457611fc3611f6d565b5b80604052505050565b6000611fd7611cae565b9050611fe38282611f9c565b919050565b600067ffffffffffffffff82111561200357612002611f6d565b5b61200c82611dcc565b9050602081019050919050565b82818337600083830152505050565b600061203b61203684611fe8565b611fcd565b90508281526020810184848401111561205757612056611f68565b5b612062848285612019565b509392505050565b600082601f83011261207f5761207e611f63565b5b813561208f848260208601612028565b91505092915050565b600080604083850312156120af576120ae611cb8565b5b60006120bd85828601611f0e565b925050602083013567ffffffffffffffff8111156120de576120dd611cbd565b5b6120ea8582860161206a565b9150509250929050565b6120fd81611e38565b82525050565b600060208201905061211860008301846120f4565b92915050565b60008060006060848603121561213757612136611cb8565b5b600061214586828701611f0e565b935050602061215686828701611f0e565b925050604061216786828701611e59565b9150509250925092565b60006020828403121561218757612186611cb8565b5b600061219584828501611f0e565b91505092915050565b6121a781611d47565b81146121b257600080fd5b50565b6000813590506121c48161219e565b92915050565b600080604083850312156121e1576121e0611cb8565b5b60006121ef85828601611f0e565b9250506020612200858286016121b5565b9150509250929050565b600067ffffffffffffffff82111561222557612224611f6d565b5b61222e82611dcc565b9050602081019050919050565b600061224e6122498461220a565b611fcd565b90508281526020810184848401111561226a57612269611f68565b5b612275848285612019565b509392505050565b600082601f83011261229257612291611f63565b5b81356122a284826020860161223b565b91505092915050565b600080600080608085870312156122c5576122c4611cb8565b5b60006122d387828801611f0e565b94505060206122e487828801611f0e565b93505060406122f587828801611e59565b925050606085013567ffffffffffffffff81111561231657612315611cbd565b5b6123228782880161227d565b91505092959194509250565b6000806040838503121561234557612344611cb8565b5b600061235385828601611f0e565b925050602061236485828601611f0e565b9150509250929050565b7f4e487b7100000000000000000000000000000000000000000000000000000000600052602260045260246000fd5b600060028204905060018216806123b557607f821691505b6020821081036123c8576123c761236e565b5b50919050565b7f4552433732313a20617070726f76656420717565727920666f72206e6f6e657860008201527f697374656e7420746f6b656e0000000000000000000000000000000000000000602082015250565b600061242a602c83611d88565b9150612435826123ce565b604082019050919050565b600060208201905081810360008301526124598161241d565b9050919050565b7f4552433732313a20617070726f76616c20746f2063757272656e74206f776e6560008201527f7200000000000000000000000000000000000000000000000000000000000000602082015250565b60006124bc602183611d88565b91506124c782612460565b604082019050919050565b600060208201905081810360008301526124eb816124af565b9050919050565b7f4552433732313a20617070726f76652063616c6c6572206973206e6f74206f7760008201527f6e6572206e6f7220617070726f76656420666f7220616c6c0000000000000000602082015250565b600061254e603883611d88565b9150612559826124f2565b604082019050919050565b6000602082019050818103600083015261257d81612541565b9050919050565b7f4f776e61626c653a2063616c6c6572206973206e6f7420746865206f776e6572600082015250565b60006125ba602083611d88565b91506125c582612584565b602082019050919050565b600060208201905081810360008301526125e9816125ad565b9050919050565b7f4552433732313a207472616e736665722063616c6c6572206973206e6f74206f60008201527f776e6572206e6f7220617070726f766564000000000000000000000000000000602082015250565b600061264c603183611d88565b9150612657826125f0565b604082019050919050565b6000602082019050818103600083015261267b8161263f565b9050919050565b7f4552433732313a206f776e657220717565727920666f72206e6f6e657869737460008201527f656e7420746f6b656e0000000000000000000000000000000000000000000000602082015250565b60006126de602983611d88565b91506126e982612682565b604082019050919050565b6000602082019050818103600083015261270d816126d1565b9050919050565b7f4552433732313a2062616c616e636520717565727920666f7220746865207a6560008201527f726f206164647265737300000000000000000000000000000000000000000000602082015250565b6000612770602a83611d88565b915061277b82612714565b604082019050919050565b6000602082019050818103600083015261279f81612763565b9050919050565b7f45524337323155524953746f726167653a2055524920717565727920666f722060008201527f6e6f6e6578697374656e7420746f6b656e000000000000000000000000000000602082015250565b6000612802603183611d88565b915061280d826127a6565b604082019050919050565b60006020820190508181036000830152612831816127f5565b9050919050565b600081905092915050565b600061284e82611d7d565b6128588185612838565b9350612868818560208601611d99565b80840191505092915050565b60006128808285612843565b915061288c8284612843565b91508190509392505050565b7f4f776e61626c653a206e6577206f776e657220697320746865207a65726f206160008201527f6464726573730000000000000000000000000000000000000000000000000000602082015250565b60006128f4602683611d88565b91506128ff82612898565b604082019050919050565b60006020820190508181036000830152612923816128e7565b9050919050565b7f68747470733a2f2f697066732e696f2f697066732f0000000000000000000000600082015250565b6000612960601583612838565b915061296b8261292a565b601582019050919050565b600061298182612953565b915061298d8284612843565b915081905092915050565b7f4552433732313a206f70657261746f7220717565727920666f72206e6f6e657860008201527f697374656e7420746f6b656e0000000000000000000000000000000000000000602082015250565b60006129f4602c83611d88565b91506129ff82612998565b604082019050919050565b60006020820190508181036000830152612a23816129e7565b9050919050565b7f4552433732313a207472616e736665722066726f6d20696e636f72726563742060008201527f6f776e6572000000000000000000000000000000000000000000000000000000602082015250565b6000612a86602583611d88565b9150612a9182612a2a565b604082019050919050565b60006020820190508181036000830152612ab581612a79565b9050919050565b7f4552433732313a207472616e7366657220746f20746865207a65726f2061646460008201527f7265737300000000000000000000000000000000000000000000000000000000602082015250565b6000612b18602483611d88565b9150612b2382612abc565b604082019050919050565b60006020820190508181036000830152612b4781612b0b565b9050919050565b7f4e487b7100000000000000000000000000000000000000000000000000000000600052601160045260246000fd5b6000612b8882611e38565b9150612b9383611e38565b925082821015612ba657612ba5612b4e565b5b828203905092915050565b6000612bbc82611e38565b9150612bc783611e38565b9250827fffffffffffffffffffffffffffffffffffffffffffffffffffffffffffffffff03821115612bfc57612bfb612b4e565b5b828201905092915050565b7f4552433732313a20617070726f766520746f2063616c6c657200000000000000600082015250565b6000612c3d601983611d88565b9150612c4882612c07565b602082019050919050565b60006020820190508181036000830152612c6c81612c30565b9050919050565b7f4552433732313a207472616e7366657220746f206e6f6e20455243373231526560008201527f63656976657220696d706c656d656e7465720000000000000000000000000000602082015250565b6000612ccf603283611d88565b9150612cda82612c73565b604082019050919050565b60006020820190508181036000830152612cfe81612cc2565b9050919050565b7f4552433732314d657461646174613a2055524920717565727920666f72206e6f60008201527f6e6578697374656e7420746f6b656e0000000000000000000000000000000000602082015250565b6000612d61602f83611d88565b9150612d6c82612d05565b604082019050919050565b60006020820190508181036000830152612d9081612d54565b9050919050565b7f4552433732313a206d696e7420746f20746865207a65726f2061646472657373600082015250565b6000612dcd602083611d88565b9150612dd882612d97565b602082019050919050565b60006020820190508181036000830152612dfc81612dc0565b9050919050565b7f4552433732313a20746f6b656e20616c7265616479206d696e74656400000000600082015250565b6000612e39601c83611d88565b9150612e4482612e03565b602082019050919050565b60006020820190508181036000830152612e6881612e2c565b9050919050565b7f45524337323155524953746f726167653a2055524920736574206f66206e6f6e60008201527f6578697374656e7420746f6b656e000000000000000000000000000000000000602082015250565b6000612ecb602e83611d88565b9150612ed682612e6f565b604082019050919050565b60006020820190508181036000830152612efa81612ebe565b9050919050565b600081519050919050565b600082825260208201905092915050565b6000612f2882612f01565b612f328185612f0c565b9350612f42818560208601611d99565b612f4b81611dcc565b840191505092915050565b6000608082019050612f6b6000830187611ecd565b612f786020830186611ecd565b612f8560408301856120f4565b8181036060830152612f978184612f1d565b905095945050505050565b600081519050612fb181611cee565b92915050565b600060208284031215612fcd57612fcc611cb8565b5b6000612fdb84828501612fa2565b91505092915050565b6000612fef82611e38565b91507fffffffffffffffffffffffffffffffffffffffffffffffffffffffffffffffff820361302157613020612b4e565b5b600182019050919050565b7f4e487b7100000000000000000000000000000000000000000000000000000000600052601260045260246000fd5b600061306682611e38565b915061307183611e38565b9250826130815761308061302c565b5b828204905092915050565b600061309782611e38565b91506130a283611e38565b9250826130b2576130b161302c565b5b828206905092915050565b7f4e487b7100000000000000000000000000000000000000000000000000000000600052603260045260246000fdfea2646970667358221220c8ffe906fab129984b0b555fd4ef88f480fa7cd63b75658d48c1ee0d2a7fc5b364736f6c634300080d0033",
  "linkReferences": {},
  "deployedLinkReferences": {}
}