{
  "_format": "hh-sol-artifact-1",
  "contractName": "StakeOverflow",
  "sourceName": "contracts/StakeOverflow/StakeOverflow.sol",
  "abi": [
    {
      "inputs": [],
      "stateMutability": "nonpayable",
      "type": "constructor"
    },
    {
      "anonymous": false,
      "inputs": [
        {
          "indexed": true,
          "internalType": "uint256",
          "name": "questionID",
          "type": "uint256"
        },
        {
          "indexed": true,
          "internalType": "address",
          "name": "answerer",
          "type": "address"
        },
        {
          "indexed": false,
          "internalType": "uint256",
          "name": "answerID",
          "type": "uint256"
        },
        {
          "indexed": false,
          "internalType": "string",
          "name": "contentURI",
          "type": "string"
        }
      ],
      "name": "NewAnswerAdded",
      "type": "event"
    },
    {
      "anonymous": false,
      "inputs": [
        {
          "indexed": true,
          "internalType": "address",
          "name": "questioner",
          "type": "address"
        },
        {
          "indexed": false,
          "internalType": "uint256",
          "name": "questionID",
          "type": "uint256"
        },
        {
          "indexed": false,
          "internalType": "string",
          "name": "contentURI",
          "type": "string"
        }
      ],
      "name": "NewQuestionAdded",
      "type": "event"
    },
    {
      "anonymous": false,
      "inputs": [
        {
          "indexed": true,
          "internalType": "address",
          "name": "previousOwner",
          "type": "address"
        },
        {
          "indexed": true,
          "internalType": "address",
          "name": "newOwner",
          "type": "address"
        }
      ],
      "name": "OwnershipTransferred",
      "type": "event"
    },
    {
      "anonymous": false,
      "inputs": [
        {
          "indexed": true,
          "internalType": "uint256",
          "name": "questionID",
          "type": "uint256"
        },
        {
          "indexed": false,
          "internalType": "uint256",
          "name": "reducedStake",
          "type": "uint256"
        }
      ],
      "name": "QuestionClosed",
      "type": "event"
    },
    {
      "anonymous": false,
      "inputs": [
        {
          "indexed": true,
          "internalType": "uint256",
          "name": "questionID",
          "type": "uint256"
        },
        {
          "indexed": true,
          "internalType": "uint256",
          "name": "answerID",
          "type": "uint256"
        },
        {
          "indexed": true,
          "internalType": "address",
          "name": "sender",
          "type": "address"
        },
        {
          "indexed": false,
          "internalType": "address",
          "name": "questioner",
          "type": "address"
        },
        {
          "indexed": false,
          "internalType": "address",
          "name": "answerer",
          "type": "address"
        },
        {
          "indexed": false,
          "internalType": "uint256",
          "name": "questionerReward",
          "type": "uint256"
        },
        {
          "indexed": false,
          "internalType": "uint256",
          "name": "answererReward",
          "type": "uint256"
        },
        {
          "indexed": false,
          "internalType": "uint256",
          "name": "reducedStake",
          "type": "uint256"
        }
      ],
      "name": "Rewarded",
      "type": "event"
    },
    {
      "anonymous": false,
      "inputs": [
        {
          "indexed": true,
          "internalType": "uint256",
          "name": "questionID",
          "type": "uint256"
        },
        {
          "indexed": true,
          "internalType": "address",
          "name": "staker",
          "type": "address"
        },
        {
          "indexed": false,
          "internalType": "uint256",
          "name": "amount",
          "type": "uint256"
        }
      ],
      "name": "StakedToQuestion",
      "type": "event"
    },
    {
      "inputs": [
        {
          "internalType": "uint256",
          "name": "",
          "type": "uint256"
        }
      ],
      "name": "_answers",
      "outputs": [
        {
          "internalType": "address",
          "name": "answerer",
          "type": "address"
        },
        {
          "internalType": "uint256",
          "name": "questionID",
          "type": "uint256"
        },
        {
          "internalType": "uint256",
          "name": "nonce",
          "type": "uint256"
        },
        {
          "internalType": "uint256",
          "name": "receivedReward",
          "type": "uint256"
        }
      ],
      "stateMutability": "view",
      "type": "function"
    },
    {
      "inputs": [
        {
          "internalType": "uint256",
          "name": "",
          "type": "uint256"
        },
        {
          "internalType": "address",
          "name": "",
          "type": "address"
        }
      ],
      "name": "_pooledAmount",
      "outputs": [
        {
          "internalType": "uint256",
          "name": "",
          "type": "uint256"
        }
      ],
      "stateMutability": "view",
      "type": "function"
    },
    {
      "inputs": [
        {
          "internalType": "uint256",
          "name": "",
          "type": "uint256"
        }
      ],
      "name": "_questions",
      "outputs": [
        {
          "internalType": "enum StakeOverflowStorage.QuestionStatus",
          "name": "status",
          "type": "uint8"
        },
        {
          "internalType": "address",
          "name": "questioner",
          "type": "address"
        },
        {
          "internalType": "uint256",
          "name": "numAnswers",
          "type": "uint256"
        },
        {
          "internalType": "uint256",
          "name": "receivedQuestionerReward",
          "type": "uint256"
        }
      ],
      "stateMutability": "view",
      "type": "function"
    },
    {
      "inputs": [
        {
          "internalType": "uint256",
          "name": "",
          "type": "uint256"
        },
        {
          "internalType": "address",
          "name": "",
          "type": "address"
        }
      ],
      "name": "_rewardedAmount",
      "outputs": [
        {
          "internalType": "uint256",
          "name": "",
          "type": "uint256"
        }
      ],
      "stateMutability": "view",
      "type": "function"
    },
    {
      "inputs": [
        {
          "internalType": "uint256",
          "name": "questionID",
          "type": "uint256"
        }
      ],
      "name": "closeQuestion",
      "outputs": [],
      "stateMutability": "nonpayable",
      "type": "function"
    },
    {
      "inputs": [
        {
          "internalType": "uint256",
          "name": "questionID",
          "type": "uint256"
        },
        {
          "internalType": "string",
          "name": "ipfsContentHash",
          "type": "string"
        }
      ],
      "name": "createAnswer",
      "outputs": [],
      "stateMutability": "nonpayable",
      "type": "function"
    },
    {
      "inputs": [
        {
          "internalType": "string",
          "name": "ipfsContentHash",
          "type": "string"
        }
      ],
      "name": "createQuestion",
      "outputs": [],
      "stateMutability": "payable",
      "type": "function"
    },
    {
      "inputs": [
        {
          "internalType": "uint256",
          "name": "contentID",
          "type": "uint256"
        }
      ],
      "name": "getContentURI",
      "outputs": [
        {
          "internalType": "string",
          "name": "",
          "type": "string"
        }
      ],
      "stateMutability": "view",
      "type": "function"
    },
    {
      "inputs": [],
      "name": "owner",
      "outputs": [
        {
          "internalType": "address",
          "name": "",
          "type": "address"
        }
      ],
      "stateMutability": "view",
      "type": "function"
    },
    {
      "inputs": [],
      "name": "renounceOwnership",
      "outputs": [],
      "stateMutability": "nonpayable",
      "type": "function"
    },
    {
      "inputs": [
        {
          "internalType": "uint256",
          "name": "questionID",
          "type": "uint256"
        },
        {
          "internalType": "uint256",
          "name": "answerID",
          "type": "uint256"
        }
      ],
      "name": "rewardDirectly",
      "outputs": [],
      "stateMutability": "payable",
      "type": "function"
    },
    {
      "inputs": [
        {
          "internalType": "uint256",
          "name": "questionID",
          "type": "uint256"
        },
        {
          "internalType": "uint256",
          "name": "answerID",
          "type": "uint256"
        }
      ],
      "name": "rewardFromPool",
      "outputs": [],
      "stateMutability": "nonpayable",
      "type": "function"
    },
    {
      "inputs": [
        {
          "internalType": "uint256",
          "name": "questionID",
          "type": "uint256"
        }
      ],
      "name": "stakeToQuestion",
      "outputs": [],
      "stateMutability": "payable",
      "type": "function"
    },
    {
      "inputs": [
        {
          "internalType": "address",
          "name": "newOwner",
          "type": "address"
        }
      ],
      "name": "transferOwnership",
      "outputs": [],
      "stateMutability": "nonpayable",
      "type": "function"
    },
    {
      "inputs": [],
      "name": "withdrawFee",
      "outputs": [],
      "stateMutability": "nonpayable",
      "type": "function"
    }
  ],
  "bytecode": "0x608060405260056007556000600855601e600955601e600a556046600b553480156200002a57600080fd5b506200004b6200003f620000ca60201b60201c565b620000d260201b60201c565b306040516200005a9062000198565b620000669190620001eb565b604051809103906000f08015801562000083573d6000803e3d6000fd5b50600160006101000a81548173ffffffffffffffffffffffffffffffffffffffff021916908373ffffffffffffffffffffffffffffffffffffffff16021790555062000208565b600033905090565b6000600660009054906101000a900473ffffffffffffffffffffffffffffffffffffffff16905081600660006101000a81548173ffffffffffffffffffffffffffffffffffffffff021916908373ffffffffffffffffffffffffffffffffffffffff1602179055508173ffffffffffffffffffffffffffffffffffffffff168173ffffffffffffffffffffffffffffffffffffffff167f8be0079c531659141344cd1fd0a4f28419497f9722a3daafe3b4186f6b6457e060405160405180910390a35050565b6134bf8062002b5183390190565b600073ffffffffffffffffffffffffffffffffffffffff82169050919050565b6000620001d382620001a6565b9050919050565b620001e581620001c6565b82525050565b6000602082019050620002026000830184620001da565b92915050565b61293980620002186000396000f3fe6080604052600436106100e85760003560e01c80637cc535701161008a578063b3580c1e11610059578063b3580c1e146102f0578063c09f32e81461030c578063e941fa7814610335578063f2fde38b1461034c576100e8565b80637cc535701461021f5780638da5cb5b1461025c57806391eb9adf146102875780639de7e697146102c7576100e8565b80634d776297116100c65780634d776297146101655780634fec390c146101a2578063715018a6146101cb578063749b93eb146101e2576100e8565b806310cb5c0a146100ed578063192e86c8146101095780632f246aab14610149575b600080fd5b61010760048036038101906101029190611ca2565b610375565b005b34801561011557600080fd5b50610130600480360381019061012b9190611ca2565b610452565b6040516101409493929190611d1f565b60405180910390f35b610163600480360381019061015e9190611d64565b6104a2565b005b34801561017157600080fd5b5061018c60048036038101906101879190611dd0565b610628565b6040516101999190611e10565b60405180910390f35b3480156101ae57600080fd5b506101c960048036038101906101c49190611f71565b61064d565b005b3480156101d757600080fd5b506101e06106e7565b005b3480156101ee57600080fd5b5061020960048036038101906102049190611dd0565b61076f565b6040516102169190611e10565b60405180910390f35b34801561022b57600080fd5b5061024660048036038101906102419190611ca2565b610794565b6040516102539190612055565b60405180910390f35b34801561026857600080fd5b5061027161083e565b60405161027e9190612077565b60405180910390f35b34801561029357600080fd5b506102ae60048036038101906102a99190611ca2565b610868565b6040516102be9493929190612109565b60405180910390f35b3480156102d357600080fd5b506102ee60048036038101906102e99190611d64565b6108c5565b005b61030a6004803603810190610305919061214e565b610a07565b005b34801561031857600080fd5b50610333600480360381019061032e9190611ca2565b610a56565b005b34801561034157600080fd5b5061034a610b94565b005b34801561035857600080fd5b50610373600480360381019061036e9190612197565b610c62565b005b806001600281111561038a57610389612092565b5b6002600083815260200190815260200160002060000160009054906101000a900460ff1660028111156103c0576103bf612092565b5b14610400576040517f08c379a00000000000000000000000000000000000000000000000000000000081526004016103f790612210565b60405180910390fd5b60003411610443576040517f08c379a000000000000000000000000000000000000000000000000000000000815260040161043a9061227c565b60405180910390fd5b61044e823334610d59565b5050565b60036020528060005260406000206000915090508060000160009054906101000a900473ffffffffffffffffffffffffffffffffffffffff16908060010154908060020154908060030154905084565b81600060028111156104b7576104b6612092565b5b6002600083815260200190815260200160002060000160009054906101000a900460ff1660028111156104ed576104ec612092565b5b0361052d576040517f08c379a0000000000000000000000000000000000000000000000000000000008152600401610524906122e8565b60405180910390fd5b81600073ffffffffffffffffffffffffffffffffffffffff166003600083815260200190815260200160002060000160009054906101000a900473ffffffffffffffffffffffffffffffffffffffff1673ffffffffffffffffffffffffffffffffffffffff16036105d3576040517f08c379a00000000000000000000000000000000000000000000000000000000081526004016105ca90612354565b60405180910390fd5b60003411610616576040517f08c379a000000000000000000000000000000000000000000000000000000000815260040161060d9061227c565b60405180910390fd5b61062284843334610e80565b50505050565b6005602052816000526040600020602052806000526040600020600091509150505481565b816001600281111561066257610661612092565b5b6002600083815260200190815260200160002060000160009054906101000a900460ff16600281111561069857610697612092565b5b146106d8576040517f08c379a00000000000000000000000000000000000000000000000000000000081526004016106cf90612210565b60405180910390fd5b6106e28383611124565b505050565b6106ef6113bb565b73ffffffffffffffffffffffffffffffffffffffff1661070d61083e565b73ffffffffffffffffffffffffffffffffffffffff1614610763576040517f08c379a000000000000000000000000000000000000000000000000000000000815260040161075a906123c0565b60405180910390fd5b61076d60006113c3565b565b6004602052816000526040600020602052806000526040600020600091509150505481565b6060600160009054906101000a900473ffffffffffffffffffffffffffffffffffffffff1673ffffffffffffffffffffffffffffffffffffffff1663c87b56dd836040518263ffffffff1660e01b81526004016107f19190611e10565b600060405180830381865afa15801561080e573d6000803e3d6000fd5b505050506040513d6000823e3d601f19601f820116820180604052508101906108379190612450565b9050919050565b6000600660009054906101000a900473ffffffffffffffffffffffffffffffffffffffff16905090565b60026020528060005260406000206000915090508060000160009054906101000a900460ff16908060000160019054906101000a900473ffffffffffffffffffffffffffffffffffffffff16908060010154908060020154905084565b81600060028111156108da576108d9612092565b5b6002600083815260200190815260200160002060000160009054906101000a900460ff1660028111156109105761090f612092565b5b03610950576040517f08c379a0000000000000000000000000000000000000000000000000000000008152600401610947906122e8565b60405180910390fd5b81600073ffffffffffffffffffffffffffffffffffffffff166003600083815260200190815260200160002060000160009054906101000a900473ffffffffffffffffffffffffffffffffffffffff1673ffffffffffffffffffffffffffffffffffffffff16036109f6576040517f08c379a00000000000000000000000000000000000000000000000000000000081526004016109ed90612354565b60405180910390fd5b610a01848433611489565b50505050565b60003411610a4a576040517f08c379a0000000000000000000000000000000000000000000000000000000008152600401610a419061227c565b60405180910390fd5b610a53816117b3565b50565b803373ffffffffffffffffffffffffffffffffffffffff166002600083815260200190815260200160002060000160019054906101000a900473ffffffffffffffffffffffffffffffffffffffff1673ffffffffffffffffffffffffffffffffffffffff1603610afb576040517f08c379a0000000000000000000000000000000000000000000000000000000008152600401610af2906124e5565b60405180910390fd5b8160016002811115610b1057610b0f612092565b5b6002600083815260200190815260200160002060000160009054906101000a900460ff166002811115610b4657610b45612092565b5b14610b86576040517f08c379a0000000000000000000000000000000000000000000000000000000008152600401610b7d90612210565b60405180910390fd5b610b8f83611a55565b505050565b610b9c6113bb565b73ffffffffffffffffffffffffffffffffffffffff16610bba61083e565b73ffffffffffffffffffffffffffffffffffffffff1614610c10576040517f08c379a0000000000000000000000000000000000000000000000000000000008152600401610c07906123c0565b60405180910390fd5b600080819055503373ffffffffffffffffffffffffffffffffffffffff166108fc6000549081150290604051600060405180830381858888f19350505050158015610c5f573d6000803e3d6000fd5b50565b610c6a6113bb565b73ffffffffffffffffffffffffffffffffffffffff16610c8861083e565b73ffffffffffffffffffffffffffffffffffffffff1614610cde576040517f08c379a0000000000000000000000000000000000000000000000000000000008152600401610cd5906123c0565b60405180910390fd5b600073ffffffffffffffffffffffffffffffffffffffff168173ffffffffffffffffffffffffffffffffffffffff1603610d4d576040517f08c379a0000000000000000000000000000000000000000000000000000000008152600401610d4490612577565b60405180910390fd5b610d56816113c3565b50565b6000600260008581526020019081526020016000209050600060646007546064610d8391906125c6565b84610d8e91906125fa565b610d989190612683565b905060008184610da891906125c6565b905080600080828254610dbb91906126b4565b92505081905550816004600088815260200190815260200160002060008773ffffffffffffffffffffffffffffffffffffffff1673ffffffffffffffffffffffffffffffffffffffff1681526020019081526020016000206000828254610e2291906126b4565b925050819055508473ffffffffffffffffffffffffffffffffffffffff16867fbc18e8476b2665775234cd6bb15bafc99eb27945917b12cac79f5b16619bae3b86604051610e709190611e10565b60405180910390a3505050505050565b60006002600086815260200190815260200160002090506000600360008681526020019081526020016000206040518060800160405290816000820160009054906101000a900473ffffffffffffffffffffffffffffffffffffffff1673ffffffffffffffffffffffffffffffffffffffff1673ffffffffffffffffffffffffffffffffffffffff16815260200160018201548152602001600282015481526020016003820154815250509050600060646007546064610f4091906125c6565b85610f4b91906125fa565b610f559190612683565b905060008185610f6591906125c6565b905060006064600a5484610f7991906125fa565b610f839190612683565b905060008184610f9391906125c6565b905082600080828254610fa691906126b4565b9250508190555081866002016000828254610fc191906126b4565b925050819055508085606001818151610fda91906126b4565b915081815250508560000160019054906101000a900473ffffffffffffffffffffffffffffffffffffffff1673ffffffffffffffffffffffffffffffffffffffff166108fc839081150290604051600060405180830381858888f1935050505015801561104b573d6000803e3d6000fd5b50846000015173ffffffffffffffffffffffffffffffffffffffff166108fc829081150290604051600060405180830381858888f19350505050158015611096573d6000803e3d6000fd5b508773ffffffffffffffffffffffffffffffffffffffff16898b7f710634881fdae4f9d96c645edeb484e42305b5c873bed441a2debe7d299b3f048960000160019054906101000a900473ffffffffffffffffffffffffffffffffffffffff1689600001518787600060405161111095949392919061274f565b60405180910390a450505050505050505050565b60003390506000600160009054906101000a900473ffffffffffffffffffffffffffffffffffffffff1673ffffffffffffffffffffffffffffffffffffffff166322e2c95783856040518363ffffffff1660e01b81526004016111889291906127a2565b6020604051808303816000875af11580156111a7573d6000803e3d6000fd5b505050506040513d601f19601f820116820180604052508101906111cb91906127e7565b90506000600260008681526020019081526020016000209050600081600101549050600182600101600082825461120291906126b4565b9250508190555060405180608001604052808573ffffffffffffffffffffffffffffffffffffffff16815260200187815260200182815260200160008152506003600085815260200190815260200160002060008201518160000160006101000a81548173ffffffffffffffffffffffffffffffffffffffff021916908373ffffffffffffffffffffffffffffffffffffffff1602179055506020820151816001015560408201518160020155606082015181600301559050506000600160009054906101000a900473ffffffffffffffffffffffffffffffffffffffff1673ffffffffffffffffffffffffffffffffffffffff1663c87b56dd856040518263ffffffff1660e01b81526004016113199190611e10565b600060405180830381865afa158015611336573d6000803e3d6000fd5b505050506040513d6000823e3d601f19601f8201168201806040525081019061135f9190612450565b90508473ffffffffffffffffffffffffffffffffffffffff16877f9efc53a15ca9f89b8eb1878997afec98727d6613d6221d7d0bcfad28f47251cd86846040516113aa929190612814565b60405180910390a350505050505050565b600033905090565b6000600660009054906101000a900473ffffffffffffffffffffffffffffffffffffffff16905081600660006101000a81548173ffffffffffffffffffffffffffffffffffffffff021916908373ffffffffffffffffffffffffffffffffffffffff1602179055508173ffffffffffffffffffffffffffffffffffffffff168173ffffffffffffffffffffffffffffffffffffffff167f8be0079c531659141344cd1fd0a4f28419497f9722a3daafe3b4186f6b6457e060405160405180910390a35050565b6000600260008581526020019081526020016000209050600060036000858152602001908152602001600020905060006004600087815260200190815260200160002060008573ffffffffffffffffffffffffffffffffffffffff1673ffffffffffffffffffffffffffffffffffffffff16815260200190815260200160002054905060006005600088815260200190815260200160002060008673ffffffffffffffffffffffffffffffffffffffff1673ffffffffffffffffffffffffffffffffffffffff1681526020019081526020016000205490506000818361156f91906125c6565b9050600081116115b4576040517f08c379a00000000000000000000000000000000000000000000000000000000081526004016115ab90612890565b60405180910390fd5b80600460008a815260200190815260200160002060008873ffffffffffffffffffffffffffffffffffffffff1673ffffffffffffffffffffffffffffffffffffffff168152602001908152602001600020600082825461161491906125c6565b9250508190555080600560008a815260200190815260200160002060008873ffffffffffffffffffffffffffffffffffffffff1673ffffffffffffffffffffffffffffffffffffffff168152602001908152602001600020600082825461167b91906126b4565b925050819055508084600301600082825461169691906126b4565b925050819055508360000160009054906101000a900473ffffffffffffffffffffffffffffffffffffffff1673ffffffffffffffffffffffffffffffffffffffff166108fc829081150290604051600060405180830381858888f19350505050158015611707573d6000803e3d6000fd5b508573ffffffffffffffffffffffffffffffffffffffff1687897f710634881fdae4f9d96c645edeb484e42305b5c873bed441a2debe7d299b3f048860000160019054906101000a900473ffffffffffffffffffffffffffffffffffffffff168860000160009054906101000a900473ffffffffffffffffffffffffffffffffffffffff16600087886040516117a19594939291906128b0565b60405180910390a45050505050505050565b600033905060003490506000600160009054906101000a900473ffffffffffffffffffffffffffffffffffffffff1673ffffffffffffffffffffffffffffffffffffffff166322e2c95784866040518363ffffffff1660e01b815260040161181c9291906127a2565b6020604051808303816000875af115801561183b573d6000803e3d6000fd5b505050506040513d601f19601f8201168201806040525081019061185f91906127e7565b90506040518060800160405280600160028111156118805761187f612092565b5b81526020018473ffffffffffffffffffffffffffffffffffffffff1681526020016000815260200160008152506002600083815260200190815260200160002060008201518160000160006101000a81548160ff021916908360028111156118eb576118ea612092565b5b021790555060208201518160000160016101000a81548173ffffffffffffffffffffffffffffffffffffffff021916908373ffffffffffffffffffffffffffffffffffffffff1602179055506040820151816001015560608201518160020155905050611959818484610d59565b6000600160009054906101000a900473ffffffffffffffffffffffffffffffffffffffff1673ffffffffffffffffffffffffffffffffffffffff1663c87b56dd836040518263ffffffff1660e01b81526004016119b69190611e10565b600060405180830381865afa1580156119d3573d6000803e3d6000fd5b505050506040513d6000823e3d601f19601f820116820180604052508101906119fc9190612450565b90508373ffffffffffffffffffffffffffffffffffffffff167fd55aaf94e9e3c68386581b941f8816b76754e3ca4f309d880a8098ad98dc2a668383604051611a46929190612814565b60405180910390a25050505050565b600060026000838152602001908152602001600020905060028160000160006101000a81548160ff02191690836002811115611a9457611a93612092565b5b021790555060008160000160019054906101000a900473ffffffffffffffffffffffffffffffffffffffff16905060006004600085815260200190815260200160002060008373ffffffffffffffffffffffffffffffffffffffff1673ffffffffffffffffffffffffffffffffffffffff1681526020019081526020016000205490506000811115611bc4576000806000856001015403611b3757829150611b62565b606460095484611b4791906125fa565b611b519190612683565b90508083611b5f91906125c6565b91505b80600080828254611b7391906126b4565b925050819055508373ffffffffffffffffffffffffffffffffffffffff166108fc849081150290604051600060405180830381858888f19350505050158015611bc0573d6000803e3d6000fd5b5050505b60006004600086815260200190815260200160002060008473ffffffffffffffffffffffffffffffffffffffff1673ffffffffffffffffffffffffffffffffffffffff16815260200190815260200160002081905550837f99fe2c8abd13b610e7f7d4a51a49e1391ba19454b72305176b884d66010e475a82604051611c4a9190611e10565b60405180910390a250505050565b6000604051905090565b600080fd5b600080fd5b6000819050919050565b611c7f81611c6c565b8114611c8a57600080fd5b50565b600081359050611c9c81611c76565b92915050565b600060208284031215611cb857611cb7611c62565b5b6000611cc684828501611c8d565b91505092915050565b600073ffffffffffffffffffffffffffffffffffffffff82169050919050565b6000611cfa82611ccf565b9050919050565b611d0a81611cef565b82525050565b611d1981611c6c565b82525050565b6000608082019050611d346000830187611d01565b611d416020830186611d10565b611d4e6040830185611d10565b611d5b6060830184611d10565b95945050505050565b60008060408385031215611d7b57611d7a611c62565b5b6000611d8985828601611c8d565b9250506020611d9a85828601611c8d565b9150509250929050565b611dad81611cef565b8114611db857600080fd5b50565b600081359050611dca81611da4565b92915050565b60008060408385031215611de757611de6611c62565b5b6000611df585828601611c8d565b9250506020611e0685828601611dbb565b9150509250929050565b6000602082019050611e256000830184611d10565b92915050565b600080fd5b600080fd5b6000601f19601f8301169050919050565b7f4e487b7100000000000000000000000000000000000000000000000000000000600052604160045260246000fd5b611e7e82611e35565b810181811067ffffffffffffffff82111715611e9d57611e9c611e46565b5b80604052505050565b6000611eb0611c58565b9050611ebc8282611e75565b919050565b600067ffffffffffffffff821115611edc57611edb611e46565b5b611ee582611e35565b9050602081019050919050565b82818337600083830152505050565b6000611f14611f0f84611ec1565b611ea6565b905082815260208101848484011115611f3057611f2f611e30565b5b611f3b848285611ef2565b509392505050565b600082601f830112611f5857611f57611e2b565b5b8135611f68848260208601611f01565b91505092915050565b60008060408385031215611f8857611f87611c62565b5b6000611f9685828601611c8d565b925050602083013567ffffffffffffffff811115611fb757611fb6611c67565b5b611fc385828601611f43565b9150509250929050565b600081519050919050565b600082825260208201905092915050565b60005b83811015612007578082015181840152602081019050611fec565b83811115612016576000848401525b50505050565b600061202782611fcd565b6120318185611fd8565b9350612041818560208601611fe9565b61204a81611e35565b840191505092915050565b6000602082019050818103600083015261206f818461201c565b905092915050565b600060208201905061208c6000830184611d01565b92915050565b7f4e487b7100000000000000000000000000000000000000000000000000000000600052602160045260246000fd5b600381106120d2576120d1612092565b5b50565b60008190506120e3826120c1565b919050565b60006120f3826120d5565b9050919050565b612103816120e8565b82525050565b600060808201905061211e60008301876120fa565b61212b6020830186611d01565b6121386040830185611d10565b6121456060830184611d10565b95945050505050565b60006020828403121561216457612163611c62565b5b600082013567ffffffffffffffff81111561218257612181611c67565b5b61218e84828501611f43565b91505092915050565b6000602082840312156121ad576121ac611c62565b5b60006121bb84828501611dbb565b91505092915050565b7f5175657374696f6e206973206e6f74206f70656e000000000000000000000000600082015250565b60006121fa601483611fd8565b9150612205826121c4565b602082019050919050565b60006020820190508181036000830152612229816121ed565b9050919050565b7f6e6565642076616c756500000000000000000000000000000000000000000000600082015250565b6000612266600a83611fd8565b915061227182612230565b602082019050919050565b6000602082019050818103600083015261229581612259565b9050919050565b7f5175657374696f6e20646f6573206e6f74206578697374000000000000000000600082015250565b60006122d2601783611fd8565b91506122dd8261229c565b602082019050919050565b60006020820190508181036000830152612301816122c5565b9050919050565b7f416e7377657220646f6573206e6f742065786973740000000000000000000000600082015250565b600061233e601583611fd8565b915061234982612308565b602082019050919050565b6000602082019050818103600083015261236d81612331565b9050919050565b7f4f776e61626c653a2063616c6c6572206973206e6f7420746865206f776e6572600082015250565b60006123aa602083611fd8565b91506123b582612374565b602082019050919050565b600060208201905081810360008301526123d98161239d565b9050919050565b60006123f36123ee84611ec1565b611ea6565b90508281526020810184848401111561240f5761240e611e30565b5b61241a848285611fe9565b509392505050565b600082601f83011261243757612436611e2b565b5b81516124478482602086016123e0565b91505092915050565b60006020828403121561246657612465611c62565b5b600082015167ffffffffffffffff81111561248457612483611c67565b5b61249084828501612422565b91505092915050565b7f4f6e6c79207175657374696f6e65722063616e2063616c6c0000000000000000600082015250565b60006124cf601883611fd8565b91506124da82612499565b602082019050919050565b600060208201905081810360008301526124fe816124c2565b9050919050565b7f4f776e61626c653a206e6577206f776e657220697320746865207a65726f206160008201527f6464726573730000000000000000000000000000000000000000000000000000602082015250565b6000612561602683611fd8565b915061256c82612505565b604082019050919050565b6000602082019050818103600083015261259081612554565b9050919050565b7f4e487b7100000000000000000000000000000000000000000000000000000000600052601160045260246000fd5b60006125d182611c6c565b91506125dc83611c6c565b9250828210156125ef576125ee612597565b5b828203905092915050565b600061260582611c6c565b915061261083611c6c565b9250817fffffffffffffffffffffffffffffffffffffffffffffffffffffffffffffffff048311821515161561264957612648612597565b5b828202905092915050565b7f4e487b7100000000000000000000000000000000000000000000000000000000600052601260045260246000fd5b600061268e82611c6c565b915061269983611c6c565b9250826126a9576126a8612654565b5b828204905092915050565b60006126bf82611c6c565b91506126ca83611c6c565b9250827fffffffffffffffffffffffffffffffffffffffffffffffffffffffffffffffff038211156126ff576126fe612597565b5b828201905092915050565b6000819050919050565b6000819050919050565b600061273961273461272f8461270a565b612714565b611c6c565b9050919050565b6127498161271e565b82525050565b600060a0820190506127646000830188611d01565b6127716020830187611d01565b61277e6040830186611d10565b61278b6060830185611d10565b6127986080830184612740565b9695505050505050565b60006040820190506127b76000830185611d01565b81810360208301526127c9818461201c565b90509392505050565b6000815190506127e181611c76565b92915050565b6000602082840312156127fd576127fc611c62565b5b600061280b848285016127d2565b91505092915050565b60006040820190506128296000830185611d10565b818103602083015261283b818461201c565b90509392505050565b7f4e6f20617661696c61626c6520616d6f756e7400000000000000000000000000600082015250565b600061287a601383611fd8565b915061288582612844565b602082019050919050565b600060208201905081810360008301526128a98161286d565b9050919050565b600060a0820190506128c56000830188611d01565b6128d26020830187611d01565b6128df6040830186612740565b6128ec6060830185611d10565b6128f96080830184611d10565b969550505050505056fea2646970667358221220fe461ce069a9725fc4aa628d55d2c580251815acaea7be0051b275b59b44923c64736f6c634300080d003360806040523480156200001157600080fd5b50604051620034bf380380620034bf8339818101604052810190620000379190620002f7565b6040518060400160405280601481526020017f5374616b654f766572666c6f77436f6e74656e740000000000000000000000008152506040518060400160405280600381526020017f534f4300000000000000000000000000000000000000000000000000000000008152508160009080519060200190620000bb929190620001dd565b508060019080519060200190620000d4929190620001dd565b505050620000f7620000eb6200010f60201b60201c565b6200011760201b60201c565b62000108816200011760201b60201c565b506200038d565b600033905090565b6000600760009054906101000a900473ffffffffffffffffffffffffffffffffffffffff16905081600760006101000a81548173ffffffffffffffffffffffffffffffffffffffff021916908373ffffffffffffffffffffffffffffffffffffffff1602179055508173ffffffffffffffffffffffffffffffffffffffff168173ffffffffffffffffffffffffffffffffffffffff167f8be0079c531659141344cd1fd0a4f28419497f9722a3daafe3b4186f6b6457e060405160405180910390a35050565b828054620001eb9062000358565b90600052602060002090601f0160209004810192826200020f57600085556200025b565b82601f106200022a57805160ff19168380011785556200025b565b828001600101855582156200025b579182015b828111156200025a5782518255916020019190600101906200023d565b5b5090506200026a91906200026e565b5090565b5b80821115620002895760008160009055506001016200026f565b5090565b600080fd5b600073ffffffffffffffffffffffffffffffffffffffff82169050919050565b6000620002bf8262000292565b9050919050565b620002d181620002b2565b8114620002dd57600080fd5b50565b600081519050620002f181620002c6565b92915050565b60006020828403121562000310576200030f6200028d565b5b60006200032084828501620002e0565b91505092915050565b7f4e487b7100000000000000000000000000000000000000000000000000000000600052602260045260246000fd5b600060028204905060018216806200037157607f821691505b60208210810362000387576200038662000329565b5b50919050565b613122806200039d6000396000f3fe608060405234801561001057600080fd5b506004361061010b5760003560e01c806370a08231116100a2578063a22cb46511610071578063a22cb465146102b8578063b88d4fde146102d4578063c87b56dd146102f0578063e985e9c514610320578063f2fde38b146103505761010b565b806370a0823114610242578063715018a6146102725780638da5cb5b1461027c57806395d89b411461029a5761010b565b806322e2c957116100de57806322e2c957146101aa57806323b872dd146101da57806342842e0e146101f65780636352211e146102125761010b565b806301ffc9a71461011057806306fdde0314610140578063081812fc1461015e578063095ea7b31461018e575b600080fd5b61012a60048036038101906101259190611d1a565b61036c565b6040516101379190611d62565b60405180910390f35b61014861044e565b6040516101559190611e16565b60405180910390f35b61017860048036038101906101739190611e6e565b6104e0565b6040516101859190611edc565b60405180910390f35b6101a860048036038101906101a39190611f23565b610565565b005b6101c460048036038101906101bf9190612098565b61067c565b6040516101d19190612103565b60405180910390f35b6101f460048036038101906101ef919061211e565b61070c565b005b610210600480360381019061020b919061211e565b61076c565b005b61022c60048036038101906102279190611e6e565b61078c565b6040516102399190611edc565b60405180910390f35b61025c60048036038101906102579190612171565b61083d565b6040516102699190612103565b60405180910390f35b61027a6108f4565b005b61028461097c565b6040516102919190611edc565b60405180910390f35b6102a26109a6565b6040516102af9190611e16565b60405180910390f35b6102d260048036038101906102cd91906121ca565b610a38565b005b6102ee60048036038101906102e991906122ab565b610a4e565b005b61030a60048036038101906103059190611e6e565b610ab0565b6040516103179190611e16565b60405180910390f35b61033a6004803603810190610335919061232e565b610c01565b6040516103479190611d62565b60405180910390f35b61036a60048036038101906103659190612171565b610c95565b005b60007f80ac58cd000000000000000000000000000000000000000000000000000000007bffffffffffffffffffffffffffffffffffffffffffffffffffffffff1916827bffffffffffffffffffffffffffffffffffffffffffffffffffffffff1916148061043757507f5b5e139f000000000000000000000000000000000000000000000000000000007bffffffffffffffffffffffffffffffffffffffffffffffffffffffff1916827bffffffffffffffffffffffffffffffffffffffffffffffffffffffff1916145b80610447575061044682610d8c565b5b9050919050565b60606000805461045d9061239d565b80601f01602080910402602001604051908101604052809291908181526020018280546104899061239d565b80156104d65780601f106104ab576101008083540402835291602001916104d6565b820191906000526020600020905b8154815290600101906020018083116104b957829003601f168201915b5050505050905090565b60006104eb82610df6565b61052a576040517f08c379a000000000000000000000000000000000000000000000000000000000815260040161052190612440565b60405180910390fd5b6004600083815260200190815260200160002060009054906101000a900473ffffffffffffffffffffffffffffffffffffffff169050919050565b60006105708261078c565b90508073ffffffffffffffffffffffffffffffffffffffff168373ffffffffffffffffffffffffffffffffffffffff16036105e0576040517f08c379a00000000000000000000000000000000000000000000000000000000081526004016105d7906124d2565b60405180910390fd5b8073ffffffffffffffffffffffffffffffffffffffff166105ff610e62565b73ffffffffffffffffffffffffffffffffffffffff16148061062e575061062d81610628610e62565b610c01565b5b61066d576040517f08c379a000000000000000000000000000000000000000000000000000000000815260040161066490612564565b60405180910390fd5b6106778383610e6a565b505050565b6000610686610e62565b73ffffffffffffffffffffffffffffffffffffffff166106a461097c565b73ffffffffffffffffffffffffffffffffffffffff16146106fa576040517f08c379a00000000000000000000000000000000000000000000000000000000081526004016106f1906125d0565b60405180910390fd5b6107048383610f23565b905092915050565b61071d610717610e62565b82610f7a565b61075c576040517f08c379a000000000000000000000000000000000000000000000000000000000815260040161075390612662565b60405180910390fd5b610767838383611058565b505050565b61078783838360405180602001604052806000815250610a4e565b505050565b6000806002600084815260200190815260200160002060009054906101000a900473ffffffffffffffffffffffffffffffffffffffff169050600073ffffffffffffffffffffffffffffffffffffffff168173ffffffffffffffffffffffffffffffffffffffff1603610834576040517f08c379a000000000000000000000000000000000000000000000000000000000815260040161082b906126f4565b60405180910390fd5b80915050919050565b60008073ffffffffffffffffffffffffffffffffffffffff168273ffffffffffffffffffffffffffffffffffffffff16036108ad576040517f08c379a00000000000000000000000000000000000000000000000000000000081526004016108a490612786565b60405180910390fd5b600360008373ffffffffffffffffffffffffffffffffffffffff1673ffffffffffffffffffffffffffffffffffffffff168152602001908152602001600020549050919050565b6108fc610e62565b73ffffffffffffffffffffffffffffffffffffffff1661091a61097c565b73ffffffffffffffffffffffffffffffffffffffff1614610970576040517f08c379a0000000000000000000000000000000000000000000000000000000008152600401610967906125d0565b60405180910390fd5b61097a60006112be565b565b6000600760009054906101000a900473ffffffffffffffffffffffffffffffffffffffff16905090565b6060600180546109b59061239d565b80601f01602080910402602001604051908101604052809291908181526020018280546109e19061239d565b8015610a2e5780601f10610a0357610100808354040283529160200191610a2e565b820191906000526020600020905b815481529060010190602001808311610a1157829003601f168201915b5050505050905090565b610a4a610a43610e62565b8383611384565b5050565b610a5f610a59610e62565b83610f7a565b610a9e576040517f08c379a0000000000000000000000000000000000000000000000000000000008152600401610a9590612662565b60405180910390fd5b610aaa848484846114f0565b50505050565b6060610abb82610df6565b610afa576040517f08c379a0000000000000000000000000000000000000000000000000000000008152600401610af190612818565b60405180910390fd5b6000600660008481526020019081526020016000208054610b1a9061239d565b80601f0160208091040260200160405190810160405280929190818152602001828054610b469061239d565b8015610b935780601f10610b6857610100808354040283529160200191610b93565b820191906000526020600020905b815481529060010190602001808311610b7657829003601f168201915b505050505090506000610ba461154c565b90506000815103610bb9578192505050610bfc565b600082511115610bee578082604051602001610bd6929190612874565b60405160208183030381529060405292505050610bfc565b610bf784611563565b925050505b919050565b6000600560008473ffffffffffffffffffffffffffffffffffffffff1673ffffffffffffffffffffffffffffffffffffffff16815260200190815260200160002060008373ffffffffffffffffffffffffffffffffffffffff1673ffffffffffffffffffffffffffffffffffffffff16815260200190815260200160002060009054906101000a900460ff16905092915050565b610c9d610e62565b73ffffffffffffffffffffffffffffffffffffffff16610cbb61097c565b73ffffffffffffffffffffffffffffffffffffffff1614610d11576040517f08c379a0000000000000000000000000000000000000000000000000000000008152600401610d08906125d0565b60405180910390fd5b600073ffffffffffffffffffffffffffffffffffffffff168173ffffffffffffffffffffffffffffffffffffffff1603610d80576040517f08c379a0000000000000000000000000000000000000000000000000000000008152600401610d779061290a565b60405180910390fd5b610d89816112be565b50565b60007f01ffc9a7000000000000000000000000000000000000000000000000000000007bffffffffffffffffffffffffffffffffffffffffffffffffffffffff1916827bffffffffffffffffffffffffffffffffffffffffffffffffffffffff1916149050919050565b60008073ffffffffffffffffffffffffffffffffffffffff166002600084815260200190815260200160002060009054906101000a900473ffffffffffffffffffffffffffffffffffffffff1673ffffffffffffffffffffffffffffffffffffffff1614159050919050565b600033905090565b816004600083815260200190815260200160002060006101000a81548173ffffffffffffffffffffffffffffffffffffffff021916908373ffffffffffffffffffffffffffffffffffffffff160217905550808273ffffffffffffffffffffffffffffffffffffffff16610edd8361078c565b73ffffffffffffffffffffffffffffffffffffffff167f8c5be1e5ebec7d5bd14f71427d1e84f3dd0314c0f7b2291e5b200ac8c7c3b92560405160405180910390a45050565b6000610f2f600861160a565b6000610f3b6008611620565b9050610f47848261162e565b610f708184604051602001610f5c9190612976565b604051602081830303815290604052611807565b8091505092915050565b6000610f8582610df6565b610fc4576040517f08c379a0000000000000000000000000000000000000000000000000000000008152600401610fbb90612a0a565b60405180910390fd5b6000610fcf8361078c565b90508073ffffffffffffffffffffffffffffffffffffffff168473ffffffffffffffffffffffffffffffffffffffff16148061103e57508373ffffffffffffffffffffffffffffffffffffffff16611026846104e0565b73ffffffffffffffffffffffffffffffffffffffff16145b8061104f575061104e8185610c01565b5b91505092915050565b8273ffffffffffffffffffffffffffffffffffffffff166110788261078c565b73ffffffffffffffffffffffffffffffffffffffff16146110ce576040517f08c379a00000000000000000000000000000000000000000000000000000000081526004016110c590612a9c565b60405180910390fd5b600073ffffffffffffffffffffffffffffffffffffffff168273ffffffffffffffffffffffffffffffffffffffff160361113d576040517f08c379a000000000000000000000000000000000000000000000000000000000815260040161113490612b2e565b60405180910390fd5b61114883838361187b565b611153600082610e6a565b6001600360008573ffffffffffffffffffffffffffffffffffffffff1673ffffffffffffffffffffffffffffffffffffffff16815260200190815260200160002060008282546111a39190612b7d565b925050819055506001600360008473ffffffffffffffffffffffffffffffffffffffff1673ffffffffffffffffffffffffffffffffffffffff16815260200190815260200160002060008282546111fa9190612bb1565b92505081905550816002600083815260200190815260200160002060006101000a81548173ffffffffffffffffffffffffffffffffffffffff021916908373ffffffffffffffffffffffffffffffffffffffff160217905550808273ffffffffffffffffffffffffffffffffffffffff168473ffffffffffffffffffffffffffffffffffffffff167fddf252ad1be2c89b69c2b068fc378daa952ba7f163c4a11628f55a4df523b3ef60405160405180910390a46112b98383836118fc565b505050565b6000600760009054906101000a900473ffffffffffffffffffffffffffffffffffffffff16905081600760006101000a81548173ffffffffffffffffffffffffffffffffffffffff021916908373ffffffffffffffffffffffffffffffffffffffff1602179055508173ffffffffffffffffffffffffffffffffffffffff168173ffffffffffffffffffffffffffffffffffffffff167f8be0079c531659141344cd1fd0a4f28419497f9722a3daafe3b4186f6b6457e060405160405180910390a35050565b8173ffffffffffffffffffffffffffffffffffffffff168373ffffffffffffffffffffffffffffffffffffffff16036113f2576040517f08c379a00000000000000000000000000000000000000000000000000000000081526004016113e990612c53565b60405180910390fd5b80600560008573ffffffffffffffffffffffffffffffffffffffff1673ffffffffffffffffffffffffffffffffffffffff16815260200190815260200160002060008473ffffffffffffffffffffffffffffffffffffffff1673ffffffffffffffffffffffffffffffffffffffff16815260200190815260200160002060006101000a81548160ff0219169083151502179055508173ffffffffffffffffffffffffffffffffffffffff168373ffffffffffffffffffffffffffffffffffffffff167f17307eab39ab6107e8899845ad3d59bd9653f200f220920489ca2b5937696c31836040516114e39190611d62565b60405180910390a3505050565b6114fb848484611058565b61150784848484611901565b611546576040517f08c379a000000000000000000000000000000000000000000000000000000000815260040161153d90612ce5565b60405180910390fd5b50505050565b606060405180602001604052806000815250905090565b606061156e82610df6565b6115ad576040517f08c379a00000000000000000000000000000000000000000000000000000000081526004016115a490612d77565b60405180910390fd5b60006115b761154c565b905060008151116115d75760405180602001604052806000815250611602565b806115e184611a88565b6040516020016115f2929190612874565b6040516020818303038152906040525b915050919050565b6001816000016000828254019250508190555050565b600081600001549050919050565b600073ffffffffffffffffffffffffffffffffffffffff168273ffffffffffffffffffffffffffffffffffffffff160361169d576040517f08c379a000000000000000000000000000000000000000000000000000000000815260040161169490612de3565b60405180910390fd5b6116a681610df6565b156116e6576040517f08c379a00000000000000000000000000000000000000000000000000000000081526004016116dd90612e4f565b60405180910390fd5b6116f26000838361187b565b6001600360008473ffffffffffffffffffffffffffffffffffffffff1673ffffffffffffffffffffffffffffffffffffffff16815260200190815260200160002060008282546117429190612bb1565b92505081905550816002600083815260200190815260200160002060006101000a81548173ffffffffffffffffffffffffffffffffffffffff021916908373ffffffffffffffffffffffffffffffffffffffff160217905550808273ffffffffffffffffffffffffffffffffffffffff16600073ffffffffffffffffffffffffffffffffffffffff167fddf252ad1be2c89b69c2b068fc378daa952ba7f163c4a11628f55a4df523b3ef60405160405180910390a4611803600083836118fc565b5050565b61181082610df6565b61184f576040517f08c379a000000000000000000000000000000000000000000000000000000000815260040161184690612ee1565b60405180910390fd5b80600660008481526020019081526020016000209080519060200190611876929190611c0b565b505050565b611883610e62565b73ffffffffffffffffffffffffffffffffffffffff166118a161097c565b73ffffffffffffffffffffffffffffffffffffffff16146118f7576040517f08c379a00000000000000000000000000000000000000000000000000000000081526004016118ee906125d0565b60405180910390fd5b505050565b505050565b60006119228473ffffffffffffffffffffffffffffffffffffffff16611be8565b15611a7b578373ffffffffffffffffffffffffffffffffffffffff1663150b7a0261194b610e62565b8786866040518563ffffffff1660e01b815260040161196d9493929190612f56565b6020604051808303816000875af19250505080156119a957506040513d601f19601f820116820180604052508101906119a69190612fb7565b60015b611a2b573d80600081146119d9576040519150601f19603f3d011682016040523d82523d6000602084013e6119de565b606091505b506000815103611a23576040517f08c379a0000000000000000000000000000000000000000000000000000000008152600401611a1a90612ce5565b60405180910390fd5b805181602001fd5b63150b7a0260e01b7bffffffffffffffffffffffffffffffffffffffffffffffffffffffff1916817bffffffffffffffffffffffffffffffffffffffffffffffffffffffff191614915050611a80565b600190505b949350505050565b606060008203611acf576040518060400160405280600181526020017f30000000000000000000000000000000000000000000000000000000000000008152509050611be3565b600082905060005b60008214611b01578080611aea90612fe4565b915050600a82611afa919061305b565b9150611ad7565b60008167ffffffffffffffff811115611b1d57611b1c611f6d565b5b6040519080825280601f01601f191660200182016040528015611b4f5781602001600182028036833780820191505090505b5090505b60008514611bdc57600182611b689190612b7d565b9150600a85611b77919061308c565b6030611b839190612bb1565b60f81b818381518110611b9957611b986130bd565b5b60200101907effffffffffffffffffffffffffffffffffffffffffffffffffffffffffffff1916908160001a905350600a85611bd5919061305b565b9450611b53565b8093505050505b919050565b6000808273ffffffffffffffffffffffffffffffffffffffff163b119050919050565b828054611c179061239d565b90600052602060002090601f016020900481019282611c395760008555611c80565b82601f10611c5257805160ff1916838001178555611c80565b82800160010185558215611c80579182015b82811115611c7f578251825591602001919060010190611c64565b5b509050611c8d9190611c91565b5090565b5b80821115611caa576000816000905550600101611c92565b5090565b6000604051905090565b600080fd5b600080fd5b60007fffffffff0000000000000000000000000000000000000000000000000000000082169050919050565b611cf781611cc2565b8114611d0257600080fd5b50565b600081359050611d1481611cee565b92915050565b600060208284031215611d3057611d2f611cb8565b5b6000611d3e84828501611d05565b91505092915050565b60008115159050919050565b611d5c81611d47565b82525050565b6000602082019050611d776000830184611d53565b92915050565b600081519050919050565b600082825260208201905092915050565b60005b83811015611db7578082015181840152602081019050611d9c565b83811115611dc6576000848401525b50505050565b6000601f19601f8301169050919050565b6000611de882611d7d565b611df28185611d88565b9350611e02818560208601611d99565b611e0b81611dcc565b840191505092915050565b60006020820190508181036000830152611e308184611ddd565b905092915050565b6000819050919050565b611e4b81611e38565b8114611e5657600080fd5b50565b600081359050611e6881611e42565b92915050565b600060208284031215611e8457611e83611cb8565b5b6000611e9284828501611e59565b91505092915050565b600073ffffffffffffffffffffffffffffffffffffffff82169050919050565b6000611ec682611e9b565b9050919050565b611ed681611ebb565b82525050565b6000602082019050611ef16000830184611ecd565b92915050565b611f0081611ebb565b8114611f0b57600080fd5b50565b600081359050611f1d81611ef7565b92915050565b60008060408385031215611f3a57611f39611cb8565b5b6000611f4885828601611f0e565b9250506020611f5985828601611e59565b9150509250929050565b600080fd5b600080fd5b7f4e487b7100000000000000000000000000000000000000000000000000000000600052604160045260246000fd5b611fa582611dcc565b810181811067ffffffffffffffff82111715611fc457611fc3611f6d565b5b80604052505050565b6000611fd7611cae565b9050611fe38282611f9c565b919050565b600067ffffffffffffffff82111561200357612002611f6d565b5b61200c82611dcc565b9050602081019050919050565b82818337600083830152505050565b600061203b61203684611fe8565b611fcd565b90508281526020810184848401111561205757612056611f68565b5b612062848285612019565b509392505050565b600082601f83011261207f5761207e611f63565b5b813561208f848260208601612028565b91505092915050565b600080604083850312156120af576120ae611cb8565b5b60006120bd85828601611f0e565b925050602083013567ffffffffffffffff8111156120de576120dd611cbd565b5b6120ea8582860161206a565b9150509250929050565b6120fd81611e38565b82525050565b600060208201905061211860008301846120f4565b92915050565b60008060006060848603121561213757612136611cb8565b5b600061214586828701611f0e565b935050602061215686828701611f0e565b925050604061216786828701611e59565b9150509250925092565b60006020828403121561218757612186611cb8565b5b600061219584828501611f0e565b91505092915050565b6121a781611d47565b81146121b257600080fd5b50565b6000813590506121c48161219e565b92915050565b600080604083850312156121e1576121e0611cb8565b5b60006121ef85828601611f0e565b9250506020612200858286016121b5565b9150509250929050565b600067ffffffffffffffff82111561222557612224611f6d565b5b61222e82611dcc565b9050602081019050919050565b600061224e6122498461220a565b611fcd565b90508281526020810184848401111561226a57612269611f68565b5b612275848285612019565b509392505050565b600082601f83011261229257612291611f63565b5b81356122a284826020860161223b565b91505092915050565b600080600080608085870312156122c5576122c4611cb8565b5b60006122d387828801611f0e565b94505060206122e487828801611f0e565b93505060406122f587828801611e59565b925050606085013567ffffffffffffffff81111561231657612315611cbd565b5b6123228782880161227d565b91505092959194509250565b6000806040838503121561234557612344611cb8565b5b600061235385828601611f0e565b925050602061236485828601611f0e565b9150509250929050565b7f4e487b7100000000000000000000000000000000000000000000000000000000600052602260045260246000fd5b600060028204905060018216806123b557607f821691505b6020821081036123c8576123c761236e565b5b50919050565b7f4552433732313a20617070726f76656420717565727920666f72206e6f6e657860008201527f697374656e7420746f6b656e0000000000000000000000000000000000000000602082015250565b600061242a602c83611d88565b9150612435826123ce565b604082019050919050565b600060208201905081810360008301526124598161241d565b9050919050565b7f4552433732313a20617070726f76616c20746f2063757272656e74206f776e6560008201527f7200000000000000000000000000000000000000000000000000000000000000602082015250565b60006124bc602183611d88565b91506124c782612460565b604082019050919050565b600060208201905081810360008301526124eb816124af565b9050919050565b7f4552433732313a20617070726f76652063616c6c6572206973206e6f74206f7760008201527f6e6572206e6f7220617070726f76656420666f7220616c6c0000000000000000602082015250565b600061254e603883611d88565b9150612559826124f2565b604082019050919050565b6000602082019050818103600083015261257d81612541565b9050919050565b7f4f776e61626c653a2063616c6c6572206973206e6f7420746865206f776e6572600082015250565b60006125ba602083611d88565b91506125c582612584565b602082019050919050565b600060208201905081810360008301526125e9816125ad565b9050919050565b7f4552433732313a207472616e736665722063616c6c6572206973206e6f74206f60008201527f776e6572206e6f7220617070726f766564000000000000000000000000000000602082015250565b600061264c603183611d88565b9150612657826125f0565b604082019050919050565b6000602082019050818103600083015261267b8161263f565b9050919050565b7f4552433732313a206f776e657220717565727920666f72206e6f6e657869737460008201527f656e7420746f6b656e0000000000000000000000000000000000000000000000602082015250565b60006126de602983611d88565b91506126e982612682565b604082019050919050565b6000602082019050818103600083015261270d816126d1565b9050919050565b7f4552433732313a2062616c616e636520717565727920666f7220746865207a6560008201527f726f206164647265737300000000000000000000000000000000000000000000602082015250565b6000612770602a83611d88565b915061277b82612714565b604082019050919050565b6000602082019050818103600083015261279f81612763565b9050919050565b7f45524337323155524953746f726167653a2055524920717565727920666f722060008201527f6e6f6e6578697374656e7420746f6b656e000000000000000000000000000000602082015250565b6000612802603183611d88565b915061280d826127a6565b604082019050919050565b60006020820190508181036000830152612831816127f5565b9050919050565b600081905092915050565b600061284e82611d7d565b6128588185612838565b9350612868818560208601611d99565b80840191505092915050565b60006128808285612843565b915061288c8284612843565b91508190509392505050565b7f4f776e61626c653a206e6577206f776e657220697320746865207a65726f206160008201527f6464726573730000000000000000000000000000000000000000000000000000602082015250565b60006128f4602683611d88565b91506128ff82612898565b604082019050919050565b60006020820190508181036000830152612923816128e7565b9050919050565b7f697066733a2f2f00000000000000000000000000000000000000000000000000600082015250565b6000612960600783612838565b915061296b8261292a565b600782019050919050565b600061298182612953565b915061298d8284612843565b915081905092915050565b7f4552433732313a206f70657261746f7220717565727920666f72206e6f6e657860008201527f697374656e7420746f6b656e0000000000000000000000000000000000000000602082015250565b60006129f4602c83611d88565b91506129ff82612998565b604082019050919050565b60006020820190508181036000830152612a23816129e7565b9050919050565b7f4552433732313a207472616e736665722066726f6d20696e636f72726563742060008201527f6f776e6572000000000000000000000000000000000000000000000000000000602082015250565b6000612a86602583611d88565b9150612a9182612a2a565b604082019050919050565b60006020820190508181036000830152612ab581612a79565b9050919050565b7f4552433732313a207472616e7366657220746f20746865207a65726f2061646460008201527f7265737300000000000000000000000000000000000000000000000000000000602082015250565b6000612b18602483611d88565b9150612b2382612abc565b604082019050919050565b60006020820190508181036000830152612b4781612b0b565b9050919050565b7f4e487b7100000000000000000000000000000000000000000000000000000000600052601160045260246000fd5b6000612b8882611e38565b9150612b9383611e38565b925082821015612ba657612ba5612b4e565b5b828203905092915050565b6000612bbc82611e38565b9150612bc783611e38565b9250827fffffffffffffffffffffffffffffffffffffffffffffffffffffffffffffffff03821115612bfc57612bfb612b4e565b5b828201905092915050565b7f4552433732313a20617070726f766520746f2063616c6c657200000000000000600082015250565b6000612c3d601983611d88565b9150612c4882612c07565b602082019050919050565b60006020820190508181036000830152612c6c81612c30565b9050919050565b7f4552433732313a207472616e7366657220746f206e6f6e20455243373231526560008201527f63656976657220696d706c656d656e7465720000000000000000000000000000602082015250565b6000612ccf603283611d88565b9150612cda82612c73565b604082019050919050565b60006020820190508181036000830152612cfe81612cc2565b9050919050565b7f4552433732314d657461646174613a2055524920717565727920666f72206e6f60008201527f6e6578697374656e7420746f6b656e0000000000000000000000000000000000602082015250565b6000612d61602f83611d88565b9150612d6c82612d05565b604082019050919050565b60006020820190508181036000830152612d9081612d54565b9050919050565b7f4552433732313a206d696e7420746f20746865207a65726f2061646472657373600082015250565b6000612dcd602083611d88565b9150612dd882612d97565b602082019050919050565b60006020820190508181036000830152612dfc81612dc0565b9050919050565b7f4552433732313a20746f6b656e20616c7265616479206d696e74656400000000600082015250565b6000612e39601c83611d88565b9150612e4482612e03565b602082019050919050565b60006020820190508181036000830152612e6881612e2c565b9050919050565b7f45524337323155524953746f726167653a2055524920736574206f66206e6f6e60008201527f6578697374656e7420746f6b656e000000000000000000000000000000000000602082015250565b6000612ecb602e83611d88565b9150612ed682612e6f565b604082019050919050565b60006020820190508181036000830152612efa81612ebe565b9050919050565b600081519050919050565b600082825260208201905092915050565b6000612f2882612f01565b612f328185612f0c565b9350612f42818560208601611d99565b612f4b81611dcc565b840191505092915050565b6000608082019050612f6b6000830187611ecd565b612f786020830186611ecd565b612f8560408301856120f4565b8181036060830152612f978184612f1d565b905095945050505050565b600081519050612fb181611cee565b92915050565b600060208284031215612fcd57612fcc611cb8565b5b6000612fdb84828501612fa2565b91505092915050565b6000612fef82611e38565b91507fffffffffffffffffffffffffffffffffffffffffffffffffffffffffffffffff820361302157613020612b4e565b5b600182019050919050565b7f4e487b7100000000000000000000000000000000000000000000000000000000600052601260045260246000fd5b600061306682611e38565b915061307183611e38565b9250826130815761308061302c565b5b828204905092915050565b600061309782611e38565b91506130a283611e38565b9250826130b2576130b161302c565b5b828206905092915050565b7f4e487b7100000000000000000000000000000000000000000000000000000000600052603260045260246000fdfea264697066735822122085222c1106876847ba154009eb1cbc88fc6db5f97de91e30a56983aa91e9ba1764736f6c634300080d0033",
  "linkReferences": {},
  "deployedLinkReferences": {}
}